{
	"contracts/4_Assignment_TodoApp.sol": {
		"todoapp": {
			"abi": [
				{
					"inputs": [],
					"stateMutability": "nonpayable",
					"type": "constructor"
				},
				{
					"inputs": [
						{
							"internalType": "string",
							"name": "_task",
							"type": "string"
						}
					],
					"name": "addTask",
					"outputs": [],
					"stateMutability": "nonpayable",
					"type": "function"
				},
				{
					"inputs": [
						{
							"internalType": "uint256",
							"name": "_taskIndex",
							"type": "uint256"
						}
					],
					"name": "deleteTask",
					"outputs": [],
					"stateMutability": "nonpayable",
					"type": "function"
				},
				{
					"inputs": [],
					"name": "getDetails",
					"outputs": [
						{
							"internalType": "string",
							"name": "",
							"type": "string"
						}
					],
					"stateMutability": "view",
					"type": "function"
				},
				{
					"inputs": [
						{
							"internalType": "uint256",
							"name": "_taskIndex",
							"type": "uint256"
						}
					],
					"name": "getTask",
					"outputs": [
						{
							"components": [
								{
									"internalType": "string",
									"name": "task",
									"type": "string"
								},
								{
									"internalType": "bool",
									"name": "isDone",
									"type": "bool"
								}
							],
							"internalType": "struct todoapp.Task",
							"name": "",
							"type": "tuple"
						}
					],
					"stateMutability": "view",
					"type": "function"
				},
				{
					"inputs": [
						{
							"internalType": "uint256",
							"name": "_taskIndex",
							"type": "uint256"
						},
						{
							"internalType": "bool",
							"name": "_status",
							"type": "bool"
						}
					],
					"name": "updateStatus",
					"outputs": [],
					"stateMutability": "nonpayable",
					"type": "function"
				},
				{
					"inputs": [
						{
							"internalType": "uint256",
							"name": "_taskIndex",
							"type": "uint256"
						},
						{
							"internalType": "string",
							"name": "_task",
							"type": "string"
						}
					],
					"name": "updateTask",
					"outputs": [],
					"stateMutability": "nonpayable",
					"type": "function"
				}
			],
			"devdoc": {
				"kind": "dev",
				"methods": {},
				"version": 1
			},
			"evm": {
				"assembly": "    /* \"contracts/4_Assignment_TodoApp.sol\":64:1085  contract todoapp... */\n  mstore(0x40, 0x80)\n    /* \"contracts/4_Assignment_TodoApp.sol\":106:181  constructor()... */\n  callvalue\n  dup1\n  iszero\n  tag_1\n  jumpi\n  0x00\n  dup1\n  revert\ntag_1:\n  pop\n    /* \"contracts/4_Assignment_TodoApp.sol\":134:174  detail = \"Program Made by Muhammad Taha\" */\n  mload(0x40)\n  dup1\n  0x40\n  add\n  0x40\n  mstore\n  dup1\n  0x1d\n  dup2\n  mstore\n  0x20\n  add\n  0x50726f6772616d204d616465206279204d7568616d6d61642054616861000000\n  dup2\n  mstore\n  pop\n    /* \"contracts/4_Assignment_TodoApp.sol\":134:140  detail */\n  0x00\n    /* \"contracts/4_Assignment_TodoApp.sol\":134:174  detail = \"Program Made by Muhammad Taha\" */\n  swap1\n  dup2\n  tag_4\n  swap2\n  swap1\n  tag_5\n  jump\t// in\ntag_4:\n  pop\n    /* \"contracts/4_Assignment_TodoApp.sol\":64:1085  contract todoapp... */\n  jump(tag_6)\n    /* \"#utility.yul\":7:106   */\ntag_7:\n    /* \"#utility.yul\":59:65   */\n  0x00\n    /* \"#utility.yul\":93:98   */\n  dup2\n    /* \"#utility.yul\":87:99   */\n  mload\n    /* \"#utility.yul\":77:99   */\n  swap1\n  pop\n    /* \"#utility.yul\":7:106   */\n  swap2\n  swap1\n  pop\n  jump\t// out\n    /* \"#utility.yul\":112:292   */\ntag_8:\n    /* \"#utility.yul\":160:237   */\n  0x4e487b7100000000000000000000000000000000000000000000000000000000\n    /* \"#utility.yul\":157:158   */\n  0x00\n    /* \"#utility.yul\":150:238   */\n  mstore\n    /* \"#utility.yul\":257:261   */\n  0x41\n    /* \"#utility.yul\":254:255   */\n  0x04\n    /* \"#utility.yul\":247:262   */\n  mstore\n    /* \"#utility.yul\":281:285   */\n  0x24\n    /* \"#utility.yul\":278:279   */\n  0x00\n    /* \"#utility.yul\":271:286   */\n  revert\n    /* \"#utility.yul\":298:478   */\ntag_9:\n    /* \"#utility.yul\":346:423   */\n  0x4e487b7100000000000000000000000000000000000000000000000000000000\n    /* \"#utility.yul\":343:344   */\n  0x00\n    /* \"#utility.yul\":336:424   */\n  mstore\n    /* \"#utility.yul\":443:447   */\n  0x22\n    /* \"#utility.yul\":440:441   */\n  0x04\n    /* \"#utility.yul\":433:448   */\n  mstore\n    /* \"#utility.yul\":467:471   */\n  0x24\n    /* \"#utility.yul\":464:465   */\n  0x00\n    /* \"#utility.yul\":457:472   */\n  revert\n    /* \"#utility.yul\":484:804   */\ntag_10:\n    /* \"#utility.yul\":528:534   */\n  0x00\n    /* \"#utility.yul\":565:566   */\n  0x02\n    /* \"#utility.yul\":559:563   */\n  dup3\n    /* \"#utility.yul\":555:567   */\n  div\n    /* \"#utility.yul\":545:567   */\n  swap1\n  pop\n    /* \"#utility.yul\":612:613   */\n  0x01\n    /* \"#utility.yul\":606:610   */\n  dup3\n    /* \"#utility.yul\":602:614   */\n  and\n    /* \"#utility.yul\":633:651   */\n  dup1\n    /* \"#utility.yul\":623:704   */\n  tag_32\n  jumpi\n    /* \"#utility.yul\":689:693   */\n  0x7f\n    /* \"#utility.yul\":681:687   */\n  dup3\n    /* \"#utility.yul\":677:694   */\n  and\n    /* \"#utility.yul\":667:694   */\n  swap2\n  pop\n    /* \"#utility.yul\":623:704   */\ntag_32:\n    /* \"#utility.yul\":751:753   */\n  0x20\n    /* \"#utility.yul\":743:749   */\n  dup3\n    /* \"#utility.yul\":740:754   */\n  lt\n    /* \"#utility.yul\":720:738   */\n  dup2\n    /* \"#utility.yul\":717:755   */\n  sub\n    /* \"#utility.yul\":714:798   */\n  tag_33\n  jumpi\n    /* \"#utility.yul\":770:788   */\n  tag_34\n  tag_9\n  jump\t// in\ntag_34:\n    /* \"#utility.yul\":714:798   */\ntag_33:\n    /* \"#utility.yul\":535:804   */\n  pop\n    /* \"#utility.yul\":484:804   */\n  swap2\n  swap1\n  pop\n  jump\t// out\n    /* \"#utility.yul\":810:951   */\ntag_11:\n    /* \"#utility.yul\":859:863   */\n  0x00\n    /* \"#utility.yul\":882:885   */\n  dup2\n    /* \"#utility.yul\":874:885   */\n  swap1\n  pop\n    /* \"#utility.yul\":905:908   */\n  dup2\n    /* \"#utility.yul\":902:903   */\n  0x00\n    /* \"#utility.yul\":895:909   */\n  mstore\n    /* \"#utility.yul\":939:943   */\n  0x20\n    /* \"#utility.yul\":936:937   */\n  0x00\n    /* \"#utility.yul\":926:944   */\n  keccak256\n    /* \"#utility.yul\":918:944   */\n  swap1\n  pop\n    /* \"#utility.yul\":810:951   */\n  swap2\n  swap1\n  pop\n  jump\t// out\n    /* \"#utility.yul\":957:1050   */\ntag_12:\n    /* \"#utility.yul\":994:1000   */\n  0x00\n    /* \"#utility.yul\":1041:1043   */\n  0x20\n    /* \"#utility.yul\":1036:1038   */\n  0x1f\n    /* \"#utility.yul\":1029:1034   */\n  dup4\n    /* \"#utility.yul\":1025:1039   */\n  add\n    /* \"#utility.yul\":1021:1044   */\n  div\n    /* \"#utility.yul\":1011:1044   */\n  swap1\n  pop\n    /* \"#utility.yul\":957:1050   */\n  swap2\n  swap1\n  pop\n  jump\t// out\n    /* \"#utility.yul\":1056:1163   */\ntag_13:\n    /* \"#utility.yul\":1100:1108   */\n  0x00\n    /* \"#utility.yul\":1150:1155   */\n  dup3\n    /* \"#utility.yul\":1144:1148   */\n  dup3\n    /* \"#utility.yul\":1140:1156   */\n  shl\n    /* \"#utility.yul\":1119:1156   */\n  swap1\n  pop\n    /* \"#utility.yul\":1056:1163   */\n  swap3\n  swap2\n  pop\n  pop\n  jump\t// out\n    /* \"#utility.yul\":1169:1562   */\ntag_14:\n    /* \"#utility.yul\":1238:1244   */\n  0x00\n    /* \"#utility.yul\":1288:1289   */\n  0x08\n    /* \"#utility.yul\":1276:1286   */\n  dup4\n    /* \"#utility.yul\":1272:1290   */\n  mul\n    /* \"#utility.yul\":1311:1408   */\n  tag_39\n    /* \"#utility.yul\":1341:1407   */\n  0xffffffffffffffffffffffffffffffffffffffffffffffffffffffffffffffff\n    /* \"#utility.yul\":1330:1339   */\n  dup3\n    /* \"#utility.yul\":1311:1408   */\n  tag_13\n  jump\t// in\ntag_39:\n    /* \"#utility.yul\":1429:1468   */\n  tag_40\n    /* \"#utility.yul\":1459:1467   */\n  dup7\n    /* \"#utility.yul\":1448:1457   */\n  dup4\n    /* \"#utility.yul\":1429:1468   */\n  tag_13\n  jump\t// in\ntag_40:\n    /* \"#utility.yul\":1417:1468   */\n  swap6\n  pop\n    /* \"#utility.yul\":1501:1505   */\n  dup1\n    /* \"#utility.yul\":1497:1506   */\n  not\n    /* \"#utility.yul\":1490:1495   */\n  dup5\n    /* \"#utility.yul\":1486:1507   */\n  and\n    /* \"#utility.yul\":1477:1507   */\n  swap4\n  pop\n    /* \"#utility.yul\":1550:1554   */\n  dup1\n    /* \"#utility.yul\":1540:1548   */\n  dup7\n    /* \"#utility.yul\":1536:1555   */\n  and\n    /* \"#utility.yul\":1529:1534   */\n  dup5\n    /* \"#utility.yul\":1526:1556   */\n  or\n    /* \"#utility.yul\":1516:1556   */\n  swap3\n  pop\n    /* \"#utility.yul\":1245:1562   */\n  pop\n  pop\n    /* \"#utility.yul\":1169:1562   */\n  swap4\n  swap3\n  pop\n  pop\n  pop\n  jump\t// out\n    /* \"#utility.yul\":1568:1645   */\ntag_15:\n    /* \"#utility.yul\":1605:1612   */\n  0x00\n    /* \"#utility.yul\":1634:1639   */\n  dup2\n    /* \"#utility.yul\":1623:1639   */\n  swap1\n  pop\n    /* \"#utility.yul\":1568:1645   */\n  swap2\n  swap1\n  pop\n  jump\t// out\n    /* \"#utility.yul\":1651:1711   */\ntag_16:\n    /* \"#utility.yul\":1679:1682   */\n  0x00\n    /* \"#utility.yul\":1700:1705   */\n  dup2\n    /* \"#utility.yul\":1693:1705   */\n  swap1\n  pop\n    /* \"#utility.yul\":1651:1711   */\n  swap2\n  swap1\n  pop\n  jump\t// out\n    /* \"#utility.yul\":1717:1859   */\ntag_17:\n    /* \"#utility.yul\":1767:1776   */\n  0x00\n    /* \"#utility.yul\":1800:1853   */\n  tag_44\n    /* \"#utility.yul\":1818:1852   */\n  tag_45\n    /* \"#utility.yul\":1827:1851   */\n  tag_46\n    /* \"#utility.yul\":1845:1850   */\n  dup5\n    /* \"#utility.yul\":1827:1851   */\n  tag_15\n  jump\t// in\ntag_46:\n    /* \"#utility.yul\":1818:1852   */\n  tag_16\n  jump\t// in\ntag_45:\n    /* \"#utility.yul\":1800:1853   */\n  tag_15\n  jump\t// in\ntag_44:\n    /* \"#utility.yul\":1787:1853   */\n  swap1\n  pop\n    /* \"#utility.yul\":1717:1859   */\n  swap2\n  swap1\n  pop\n  jump\t// out\n    /* \"#utility.yul\":1865:1940   */\ntag_18:\n    /* \"#utility.yul\":1908:1911   */\n  0x00\n    /* \"#utility.yul\":1929:1934   */\n  dup2\n    /* \"#utility.yul\":1922:1934   */\n  swap1\n  pop\n    /* \"#utility.yul\":1865:1940   */\n  swap2\n  swap1\n  pop\n  jump\t// out\n    /* \"#utility.yul\":1946:2215   */\ntag_19:\n    /* \"#utility.yul\":2056:2095   */\n  tag_49\n    /* \"#utility.yul\":2087:2094   */\n  dup4\n    /* \"#utility.yul\":2056:2095   */\n  tag_17\n  jump\t// in\ntag_49:\n    /* \"#utility.yul\":2117:2208   */\n  tag_50\n    /* \"#utility.yul\":2166:2207   */\n  tag_51\n    /* \"#utility.yul\":2190:2206   */\n  dup3\n    /* \"#utility.yul\":2166:2207   */\n  tag_18\n  jump\t// in\ntag_51:\n    /* \"#utility.yul\":2158:2164   */\n  dup5\n    /* \"#utility.yul\":2151:2155   */\n  dup5\n    /* \"#utility.yul\":2145:2156   */\n  sload\n    /* \"#utility.yul\":2117:2208   */\n  tag_14\n  jump\t// in\ntag_50:\n    /* \"#utility.yul\":2111:2115   */\n  dup3\n    /* \"#utility.yul\":2104:2209   */\n  sstore\n    /* \"#utility.yul\":2022:2215   */\n  pop\n    /* \"#utility.yul\":1946:2215   */\n  pop\n  pop\n  pop\n  jump\t// out\n    /* \"#utility.yul\":2221:2294   */\ntag_20:\n    /* \"#utility.yul\":2266:2269   */\n  0x00\n    /* \"#utility.yul\":2221:2294   */\n  swap1\n  jump\t// out\n    /* \"#utility.yul\":2300:2489   */\ntag_21:\n    /* \"#utility.yul\":2377:2409   */\n  tag_54\n  tag_20\n  jump\t// in\ntag_54:\n    /* \"#utility.yul\":2418:2483   */\n  tag_55\n    /* \"#utility.yul\":2476:2482   */\n  dup2\n    /* \"#utility.yul\":2468:2474   */\n  dup5\n    /* \"#utility.yul\":2462:2466   */\n  dup5\n    /* \"#utility.yul\":2418:2483   */\n  tag_19\n  jump\t// in\ntag_55:\n    /* \"#utility.yul\":2353:2489   */\n  pop\n    /* \"#utility.yul\":2300:2489   */\n  pop\n  pop\n  jump\t// out\n    /* \"#utility.yul\":2495:2681   */\ntag_22:\n    /* \"#utility.yul\":2555:2675   */\ntag_57:\n    /* \"#utility.yul\":2572:2575   */\n  dup2\n    /* \"#utility.yul\":2565:2570   */\n  dup2\n    /* \"#utility.yul\":2562:2576   */\n  lt\n    /* \"#utility.yul\":2555:2675   */\n  iszero\n  tag_59\n  jumpi\n    /* \"#utility.yul\":2626:2665   */\n  tag_60\n    /* \"#utility.yul\":2663:2664   */\n  0x00\n    /* \"#utility.yul\":2656:2661   */\n  dup3\n    /* \"#utility.yul\":2626:2665   */\n  tag_21\n  jump\t// in\ntag_60:\n    /* \"#utility.yul\":2599:2600   */\n  0x01\n    /* \"#utility.yul\":2592:2597   */\n  dup2\n    /* \"#utility.yul\":2588:2601   */\n  add\n    /* \"#utility.yul\":2579:2601   */\n  swap1\n  pop\n    /* \"#utility.yul\":2555:2675   */\n  jump(tag_57)\ntag_59:\n    /* \"#utility.yul\":2495:2681   */\n  pop\n  pop\n  jump\t// out\n    /* \"#utility.yul\":2687:3230   */\ntag_23:\n    /* \"#utility.yul\":2788:2790   */\n  0x1f\n    /* \"#utility.yul\":2783:2786   */\n  dup3\n    /* \"#utility.yul\":2780:2791   */\n  gt\n    /* \"#utility.yul\":2777:3223   */\n  iszero\n  tag_62\n  jumpi\n    /* \"#utility.yul\":2822:2860   */\n  tag_63\n    /* \"#utility.yul\":2854:2859   */\n  dup2\n    /* \"#utility.yul\":2822:2860   */\n  tag_11\n  jump\t// in\ntag_63:\n    /* \"#utility.yul\":2906:2935   */\n  tag_64\n    /* \"#utility.yul\":2924:2934   */\n  dup5\n    /* \"#utility.yul\":2906:2935   */\n  tag_12\n  jump\t// in\ntag_64:\n    /* \"#utility.yul\":2896:2904   */\n  dup2\n    /* \"#utility.yul\":2892:2936   */\n  add\n    /* \"#utility.yul\":3089:3091   */\n  0x20\n    /* \"#utility.yul\":3077:3087   */\n  dup6\n    /* \"#utility.yul\":3074:3092   */\n  lt\n    /* \"#utility.yul\":3071:3120   */\n  iszero\n  tag_65\n  jumpi\n    /* \"#utility.yul\":3110:3118   */\n  dup2\n    /* \"#utility.yul\":3095:3118   */\n  swap1\n  pop\n    /* \"#utility.yul\":3071:3120   */\ntag_65:\n    /* \"#utility.yul\":3133:3213   */\n  tag_66\n    /* \"#utility.yul\":3189:3211   */\n  tag_67\n    /* \"#utility.yul\":3207:3210   */\n  dup6\n    /* \"#utility.yul\":3189:3211   */\n  tag_12\n  jump\t// in\ntag_67:\n    /* \"#utility.yul\":3179:3187   */\n  dup4\n    /* \"#utility.yul\":3175:3212   */\n  add\n    /* \"#utility.yul\":3162:3173   */\n  dup3\n    /* \"#utility.yul\":3133:3213   */\n  tag_22\n  jump\t// in\ntag_66:\n    /* \"#utility.yul\":2792:3223   */\n  pop\n  pop\n    /* \"#utility.yul\":2777:3223   */\ntag_62:\n    /* \"#utility.yul\":2687:3230   */\n  pop\n  pop\n  pop\n  jump\t// out\n    /* \"#utility.yul\":3236:3353   */\ntag_24:\n    /* \"#utility.yul\":3290:3298   */\n  0x00\n    /* \"#utility.yul\":3340:3345   */\n  dup3\n    /* \"#utility.yul\":3334:3338   */\n  dup3\n    /* \"#utility.yul\":3330:3346   */\n  shr\n    /* \"#utility.yul\":3309:3346   */\n  swap1\n  pop\n    /* \"#utility.yul\":3236:3353   */\n  swap3\n  swap2\n  pop\n  pop\n  jump\t// out\n    /* \"#utility.yul\":3359:3528   */\ntag_25:\n    /* \"#utility.yul\":3403:3409   */\n  0x00\n    /* \"#utility.yul\":3436:3487   */\n  tag_70\n    /* \"#utility.yul\":3484:3485   */\n  0x00\n    /* \"#utility.yul\":3480:3486   */\n  not\n    /* \"#utility.yul\":3472:3477   */\n  dup5\n    /* \"#utility.yul\":3469:3470   */\n  0x08\n    /* \"#utility.yul\":3465:3478   */\n  mul\n    /* \"#utility.yul\":3436:3487   */\n  tag_24\n  jump\t// in\ntag_70:\n    /* \"#utility.yul\":3432:3488   */\n  not\n    /* \"#utility.yul\":3517:3521   */\n  dup1\n    /* \"#utility.yul\":3511:3515   */\n  dup4\n    /* \"#utility.yul\":3507:3522   */\n  and\n    /* \"#utility.yul\":3497:3522   */\n  swap2\n  pop\n    /* \"#utility.yul\":3410:3528   */\n  pop\n    /* \"#utility.yul\":3359:3528   */\n  swap3\n  swap2\n  pop\n  pop\n  jump\t// out\n    /* \"#utility.yul\":3533:3828   */\ntag_26:\n    /* \"#utility.yul\":3609:3613   */\n  0x00\n    /* \"#utility.yul\":3755:3784   */\n  tag_72\n    /* \"#utility.yul\":3780:3783   */\n  dup4\n    /* \"#utility.yul\":3774:3778   */\n  dup4\n    /* \"#utility.yul\":3755:3784   */\n  tag_25\n  jump\t// in\ntag_72:\n    /* \"#utility.yul\":3747:3784   */\n  swap2\n  pop\n    /* \"#utility.yul\":3817:3820   */\n  dup3\n    /* \"#utility.yul\":3814:3815   */\n  0x02\n    /* \"#utility.yul\":3810:3821   */\n  mul\n    /* \"#utility.yul\":3804:3808   */\n  dup3\n    /* \"#utility.yul\":3801:3822   */\n  or\n    /* \"#utility.yul\":3793:3822   */\n  swap1\n  pop\n    /* \"#utility.yul\":3533:3828   */\n  swap3\n  swap2\n  pop\n  pop\n  jump\t// out\n    /* \"#utility.yul\":3833:5228   */\ntag_5:\n    /* \"#utility.yul\":3950:3987   */\n  tag_74\n    /* \"#utility.yul\":3983:3986   */\n  dup3\n    /* \"#utility.yul\":3950:3987   */\n  tag_7\n  jump\t// in\ntag_74:\n    /* \"#utility.yul\":4052:4070   */\n  0xffffffffffffffff\n    /* \"#utility.yul\":4044:4050   */\n  dup2\n    /* \"#utility.yul\":4041:4071   */\n  gt\n    /* \"#utility.yul\":4038:4094   */\n  iszero\n  tag_75\n  jumpi\n    /* \"#utility.yul\":4074:4092   */\n  tag_76\n  tag_8\n  jump\t// in\ntag_76:\n    /* \"#utility.yul\":4038:4094   */\ntag_75:\n    /* \"#utility.yul\":4118:4156   */\n  tag_77\n    /* \"#utility.yul\":4150:4154   */\n  dup3\n    /* \"#utility.yul\":4144:4155   */\n  sload\n    /* \"#utility.yul\":4118:4156   */\n  tag_10\n  jump\t// in\ntag_77:\n    /* \"#utility.yul\":4203:4270   */\n  tag_78\n    /* \"#utility.yul\":4263:4269   */\n  dup3\n    /* \"#utility.yul\":4255:4261   */\n  dup3\n    /* \"#utility.yul\":4249:4253   */\n  dup6\n    /* \"#utility.yul\":4203:4270   */\n  tag_23\n  jump\t// in\ntag_78:\n    /* \"#utility.yul\":4297:4298   */\n  0x00\n    /* \"#utility.yul\":4321:4325   */\n  0x20\n    /* \"#utility.yul\":4308:4325   */\n  swap1\n  pop\n    /* \"#utility.yul\":4353:4355   */\n  0x1f\n    /* \"#utility.yul\":4345:4351   */\n  dup4\n    /* \"#utility.yul\":4342:4356   */\n  gt\n    /* \"#utility.yul\":4370:4371   */\n  0x01\n    /* \"#utility.yul\":4365:4983   */\n  dup2\n  eq\n  tag_80\n  jumpi\n    /* \"#utility.yul\":5027:5028   */\n  0x00\n    /* \"#utility.yul\":5044:5050   */\n  dup5\n    /* \"#utility.yul\":5041:5118   */\n  iszero\n  tag_81\n  jumpi\n    /* \"#utility.yul\":5093:5102   */\n  dup3\n    /* \"#utility.yul\":5088:5091   */\n  dup8\n    /* \"#utility.yul\":5084:5103   */\n  add\n    /* \"#utility.yul\":5078:5104   */\n  mload\n    /* \"#utility.yul\":5069:5104   */\n  swap1\n  pop\n    /* \"#utility.yul\":5041:5118   */\ntag_81:\n    /* \"#utility.yul\":5144:5211   */\n  tag_82\n    /* \"#utility.yul\":5204:5210   */\n  dup6\n    /* \"#utility.yul\":5197:5202   */\n  dup3\n    /* \"#utility.yul\":5144:5211   */\n  tag_26\n  jump\t// in\ntag_82:\n    /* \"#utility.yul\":5138:5142   */\n  dup7\n    /* \"#utility.yul\":5131:5212   */\n  sstore\n    /* \"#utility.yul\":5000:5222   */\n  pop\n    /* \"#utility.yul\":4335:5222   */\n  jump(tag_79)\n    /* \"#utility.yul\":4365:4983   */\ntag_80:\n    /* \"#utility.yul\":4417:4421   */\n  0x1f\n    /* \"#utility.yul\":4413:4422   */\n  not\n    /* \"#utility.yul\":4405:4411   */\n  dup5\n    /* \"#utility.yul\":4401:4423   */\n  and\n    /* \"#utility.yul\":4451:4488   */\n  tag_83\n    /* \"#utility.yul\":4483:4487   */\n  dup7\n    /* \"#utility.yul\":4451:4488   */\n  tag_11\n  jump\t// in\ntag_83:\n    /* \"#utility.yul\":4510:4511   */\n  0x00\n    /* \"#utility.yul\":4524:4732   */\ntag_84:\n    /* \"#utility.yul\":4538:4545   */\n  dup3\n    /* \"#utility.yul\":4535:4536   */\n  dup2\n    /* \"#utility.yul\":4532:4546   */\n  lt\n    /* \"#utility.yul\":4524:4732   */\n  iszero\n  tag_86\n  jumpi\n    /* \"#utility.yul\":4617:4626   */\n  dup5\n    /* \"#utility.yul\":4612:4615   */\n  dup10\n    /* \"#utility.yul\":4608:4627   */\n  add\n    /* \"#utility.yul\":4602:4628   */\n  mload\n    /* \"#utility.yul\":4594:4600   */\n  dup3\n    /* \"#utility.yul\":4587:4629   */\n  sstore\n    /* \"#utility.yul\":4668:4669   */\n  0x01\n    /* \"#utility.yul\":4660:4666   */\n  dup3\n    /* \"#utility.yul\":4656:4670   */\n  add\n    /* \"#utility.yul\":4646:4670   */\n  swap2\n  pop\n    /* \"#utility.yul\":4715:4717   */\n  0x20\n    /* \"#utility.yul\":4704:4713   */\n  dup6\n    /* \"#utility.yul\":4700:4718   */\n  add\n    /* \"#utility.yul\":4687:4718   */\n  swap5\n  pop\n    /* \"#utility.yul\":4561:4565   */\n  0x20\n    /* \"#utility.yul\":4558:4559   */\n  dup2\n    /* \"#utility.yul\":4554:4566   */\n  add\n    /* \"#utility.yul\":4549:4566   */\n  swap1\n  pop\n    /* \"#utility.yul\":4524:4732   */\n  jump(tag_84)\ntag_86:\n    /* \"#utility.yul\":4760:4766   */\n  dup7\n    /* \"#utility.yul\":4751:4758   */\n  dup4\n    /* \"#utility.yul\":4748:4767   */\n  lt\n    /* \"#utility.yul\":4745:4924   */\n  iszero\n  tag_87\n  jumpi\n    /* \"#utility.yul\":4818:4827   */\n  dup5\n    /* \"#utility.yul\":4813:4816   */\n  dup10\n    /* \"#utility.yul\":4809:4828   */\n  add\n    /* \"#utility.yul\":4803:4829   */\n  mload\n    /* \"#utility.yul\":4861:4909   */\n  tag_88\n    /* \"#utility.yul\":4903:4907   */\n  0x1f\n    /* \"#utility.yul\":4895:4901   */\n  dup10\n    /* \"#utility.yul\":4891:4908   */\n  and\n    /* \"#utility.yul\":4880:4889   */\n  dup3\n    /* \"#utility.yul\":4861:4909   */\n  tag_25\n  jump\t// in\ntag_88:\n    /* \"#utility.yul\":4853:4859   */\n  dup4\n    /* \"#utility.yul\":4846:4910   */\n  sstore\n    /* \"#utility.yul\":4768:4924   */\n  pop\n    /* \"#utility.yul\":4745:4924   */\ntag_87:\n    /* \"#utility.yul\":4970:4971   */\n  0x01\n    /* \"#utility.yul\":4966:4967   */\n  0x02\n    /* \"#utility.yul\":4958:4964   */\n  dup9\n    /* \"#utility.yul\":4954:4968   */\n  mul\n    /* \"#utility.yul\":4950:4972   */\n  add\n    /* \"#utility.yul\":4944:4948   */\n  dup9\n    /* \"#utility.yul\":4937:4973   */\n  sstore\n    /* \"#utility.yul\":4372:4983   */\n  pop\n  pop\n  pop\n    /* \"#utility.yul\":4335:5222   */\ntag_79:\n  pop\n    /* \"#utility.yul\":3925:5228   */\n  pop\n  pop\n  pop\n    /* \"#utility.yul\":3833:5228   */\n  pop\n  pop\n  jump\t// out\n    /* \"contracts/4_Assignment_TodoApp.sol\":64:1085  contract todoapp... */\ntag_6:\n  dataSize(sub_0)\n  dup1\n  dataOffset(sub_0)\n  0x00\n  codecopy\n  0x00\n  return\nstop\n\nsub_0: assembly {\n        /* \"contracts/4_Assignment_TodoApp.sol\":64:1085  contract todoapp... */\n      mstore(0x40, 0x80)\n      callvalue\n      dup1\n      iszero\n      tag_1\n      jumpi\n      0x00\n      dup1\n      revert\n    tag_1:\n      pop\n      jumpi(tag_2, lt(calldatasize, 0x04))\n      shr(0xe0, calldataload(0x00))\n      dup1\n      0x1d65e77e\n      eq\n      tag_3\n      jumpi\n      dup1\n      0x387008c2\n      eq\n      tag_4\n      jumpi\n      dup1\n      0x560f3192\n      eq\n      tag_5\n      jumpi\n      dup1\n      0x67238562\n      eq\n      tag_6\n      jumpi\n      dup1\n      0x86533f6c\n      eq\n      tag_7\n      jumpi\n      dup1\n      0xfbbf93a0\n      eq\n      tag_8\n      jumpi\n    tag_2:\n      0x00\n      dup1\n      revert\n        /* \"contracts/4_Assignment_TodoApp.sol\":477:602  function getTask(uint _taskIndex) public view returns(Task memory)... */\n    tag_3:\n      tag_9\n      0x04\n      dup1\n      calldatasize\n      sub\n      dup2\n      add\n      swap1\n      tag_10\n      swap2\n      swap1\n      tag_11\n      jump\t// in\n    tag_10:\n      tag_12\n      jump\t// in\n    tag_9:\n      mload(0x40)\n      tag_13\n      swap2\n      swap1\n      tag_14\n      jump\t// in\n    tag_13:\n      mload(0x40)\n      dup1\n      swap2\n      sub\n      swap1\n      return\n        /* \"contracts/4_Assignment_TodoApp.sol\":608:738  function updateStatus(uint256 _taskIndex, bool _status) public... */\n    tag_4:\n      tag_15\n      0x04\n      dup1\n      calldatasize\n      sub\n      dup2\n      add\n      swap1\n      tag_16\n      swap2\n      swap1\n      tag_17\n      jump\t// in\n    tag_16:\n      tag_18\n      jump\t// in\n    tag_15:\n      stop\n        /* \"contracts/4_Assignment_TodoApp.sol\":881:985  function deleteTask(uint256 _taskIndex) public... */\n    tag_5:\n      tag_19\n      0x04\n      dup1\n      calldatasize\n      sub\n      dup2\n      add\n      swap1\n      tag_20\n      swap2\n      swap1\n      tag_11\n      jump\t// in\n    tag_20:\n      tag_21\n      jump\t// in\n    tag_19:\n      stop\n        /* \"contracts/4_Assignment_TodoApp.sol\":324:471  function addTask(string memory _task) public... */\n    tag_6:\n      tag_22\n      0x04\n      dup1\n      calldatasize\n      sub\n      dup2\n      add\n      swap1\n      tag_23\n      swap2\n      swap1\n      tag_24\n      jump\t// in\n    tag_23:\n      tag_25\n      jump\t// in\n    tag_22:\n      stop\n        /* \"contracts/4_Assignment_TodoApp.sol\":744:875  function updateTask(uint256 _taskIndex, string memory _task) public... */\n    tag_7:\n      tag_26\n      0x04\n      dup1\n      calldatasize\n      sub\n      dup2\n      add\n      swap1\n      tag_27\n      swap2\n      swap1\n      tag_28\n      jump\t// in\n    tag_27:\n      tag_29\n      jump\t// in\n    tag_26:\n      stop\n        /* \"contracts/4_Assignment_TodoApp.sol\":991:1083  function getDetails() public view returns(string memory)... */\n    tag_8:\n      tag_30\n      tag_31\n      jump\t// in\n    tag_30:\n      mload(0x40)\n      tag_32\n      swap2\n      swap1\n      tag_33\n      jump\t// in\n    tag_32:\n      mload(0x40)\n      dup1\n      swap2\n      sub\n      swap1\n      return\n        /* \"contracts/4_Assignment_TodoApp.sol\":477:602  function getTask(uint _taskIndex) public view returns(Task memory)... */\n    tag_12:\n        /* \"contracts/4_Assignment_TodoApp.sol\":531:542  Task memory */\n      tag_34\n      tag_35\n      jump\t// in\n    tag_34:\n        /* \"contracts/4_Assignment_TodoApp.sol\":565:570  Users */\n      0x01\n        /* \"contracts/4_Assignment_TodoApp.sol\":565:582  Users[msg.sender] */\n      0x00\n        /* \"contracts/4_Assignment_TodoApp.sol\":571:581  msg.sender */\n      caller\n        /* \"contracts/4_Assignment_TodoApp.sol\":565:582  Users[msg.sender] */\n      0xffffffffffffffffffffffffffffffffffffffff\n      and\n      0xffffffffffffffffffffffffffffffffffffffff\n      and\n      dup2\n      mstore\n      0x20\n      add\n      swap1\n      dup2\n      mstore\n      0x20\n      add\n      0x00\n      keccak256\n        /* \"contracts/4_Assignment_TodoApp.sol\":583:593  _taskIndex */\n      dup3\n        /* \"contracts/4_Assignment_TodoApp.sol\":565:594  Users[msg.sender][_taskIndex] */\n      dup2\n      sload\n      dup2\n      lt\n      tag_37\n      jumpi\n      tag_38\n      tag_39\n      jump\t// in\n    tag_38:\n    tag_37:\n      swap1\n      0x00\n      mstore\n      keccak256(0x00, 0x20)\n      swap1\n      0x02\n      mul\n      add\n        /* \"contracts/4_Assignment_TodoApp.sol\":558:594  return Users[msg.sender][_taskIndex] */\n      mload(0x40)\n      dup1\n      0x40\n      add\n      0x40\n      mstore\n      swap1\n      dup2\n      0x00\n      dup3\n      add\n      dup1\n      sload\n      tag_41\n      swap1\n      tag_42\n      jump\t// in\n    tag_41:\n      dup1\n      0x1f\n      add\n      0x20\n      dup1\n      swap2\n      div\n      mul\n      0x20\n      add\n      mload(0x40)\n      swap1\n      dup2\n      add\n      0x40\n      mstore\n      dup1\n      swap3\n      swap2\n      swap1\n      dup2\n      dup2\n      mstore\n      0x20\n      add\n      dup3\n      dup1\n      sload\n      tag_43\n      swap1\n      tag_42\n      jump\t// in\n    tag_43:\n      dup1\n      iszero\n      tag_44\n      jumpi\n      dup1\n      0x1f\n      lt\n      tag_45\n      jumpi\n      0x0100\n      dup1\n      dup4\n      sload\n      div\n      mul\n      dup4\n      mstore\n      swap2\n      0x20\n      add\n      swap2\n      jump(tag_44)\n    tag_45:\n      dup3\n      add\n      swap2\n      swap1\n      0x00\n      mstore\n      keccak256(0x00, 0x20)\n      swap1\n    tag_46:\n      dup2\n      sload\n      dup2\n      mstore\n      swap1\n      0x01\n      add\n      swap1\n      0x20\n      add\n      dup1\n      dup4\n      gt\n      tag_46\n      jumpi\n      dup3\n      swap1\n      sub\n      0x1f\n      and\n      dup3\n      add\n      swap2\n    tag_44:\n      pop\n      pop\n      pop\n      pop\n      pop\n      dup2\n      mstore\n      0x20\n      add\n      0x01\n      dup3\n      add\n      0x00\n      swap1\n      sload\n      swap1\n      0x0100\n      exp\n      swap1\n      div\n      0xff\n      and\n      iszero\n      iszero\n      iszero\n      iszero\n      dup2\n      mstore\n      pop\n      pop\n      swap1\n      pop\n        /* \"contracts/4_Assignment_TodoApp.sol\":477:602  function getTask(uint _taskIndex) public view returns(Task memory)... */\n      swap2\n      swap1\n      pop\n      jump\t// out\n        /* \"contracts/4_Assignment_TodoApp.sol\":608:738  function updateStatus(uint256 _taskIndex, bool _status) public... */\n    tag_18:\n        /* \"contracts/4_Assignment_TodoApp.sol\":724:731  _status */\n      dup1\n        /* \"contracts/4_Assignment_TodoApp.sol\":685:690  Users */\n      0x01\n        /* \"contracts/4_Assignment_TodoApp.sol\":685:702  Users[msg.sender] */\n      0x00\n        /* \"contracts/4_Assignment_TodoApp.sol\":691:701  msg.sender */\n      caller\n        /* \"contracts/4_Assignment_TodoApp.sol\":685:702  Users[msg.sender] */\n      0xffffffffffffffffffffffffffffffffffffffff\n      and\n      0xffffffffffffffffffffffffffffffffffffffff\n      and\n      dup2\n      mstore\n      0x20\n      add\n      swap1\n      dup2\n      mstore\n      0x20\n      add\n      0x00\n      keccak256\n        /* \"contracts/4_Assignment_TodoApp.sol\":703:713  _taskIndex */\n      dup4\n        /* \"contracts/4_Assignment_TodoApp.sol\":685:714  Users[msg.sender][_taskIndex] */\n      dup2\n      sload\n      dup2\n      lt\n      tag_48\n      jumpi\n      tag_49\n      tag_39\n      jump\t// in\n    tag_49:\n    tag_48:\n      swap1\n      0x00\n      mstore\n      keccak256(0x00, 0x20)\n      swap1\n      0x02\n      mul\n      add\n        /* \"contracts/4_Assignment_TodoApp.sol\":685:721  Users[msg.sender][_taskIndex].isDone */\n      0x01\n      add\n      0x00\n        /* \"contracts/4_Assignment_TodoApp.sol\":685:731  Users[msg.sender][_taskIndex].isDone = _status */\n      0x0100\n      exp\n      dup2\n      sload\n      dup2\n      0xff\n      mul\n      not\n      and\n      swap1\n      dup4\n      iszero\n      iszero\n      mul\n      or\n      swap1\n      sstore\n      pop\n        /* \"contracts/4_Assignment_TodoApp.sol\":608:738  function updateStatus(uint256 _taskIndex, bool _status) public... */\n      pop\n      pop\n      jump\t// out\n        /* \"contracts/4_Assignment_TodoApp.sol\":881:985  function deleteTask(uint256 _taskIndex) public... */\n    tag_21:\n        /* \"contracts/4_Assignment_TodoApp.sol\":949:954  Users */\n      0x01\n        /* \"contracts/4_Assignment_TodoApp.sol\":949:966  Users[msg.sender] */\n      0x00\n        /* \"contracts/4_Assignment_TodoApp.sol\":955:965  msg.sender */\n      caller\n        /* \"contracts/4_Assignment_TodoApp.sol\":949:966  Users[msg.sender] */\n      0xffffffffffffffffffffffffffffffffffffffff\n      and\n      0xffffffffffffffffffffffffffffffffffffffff\n      and\n      dup2\n      mstore\n      0x20\n      add\n      swap1\n      dup2\n      mstore\n      0x20\n      add\n      0x00\n      keccak256\n        /* \"contracts/4_Assignment_TodoApp.sol\":967:977  _taskIndex */\n      dup2\n        /* \"contracts/4_Assignment_TodoApp.sol\":949:978  Users[msg.sender][_taskIndex] */\n      dup2\n      sload\n      dup2\n      lt\n      tag_52\n      jumpi\n      tag_53\n      tag_39\n      jump\t// in\n    tag_53:\n    tag_52:\n      swap1\n      0x00\n      mstore\n      keccak256(0x00, 0x20)\n      swap1\n      0x02\n      mul\n      add\n      0x00\n        /* \"contracts/4_Assignment_TodoApp.sol\":942:978  delete Users[msg.sender][_taskIndex] */\n      dup1\n      dup3\n      add\n      0x00\n      tag_55\n      swap2\n      swap1\n      tag_56\n      jump\t// in\n    tag_55:\n      0x01\n      dup3\n      add\n      exp(0x0100, 0x00)\n      dup2\n      sload\n      swap1\n      0xff\n      mul\n      not\n      and\n      swap1\n      sstore\n      pop\n      pop\n        /* \"contracts/4_Assignment_TodoApp.sol\":881:985  function deleteTask(uint256 _taskIndex) public... */\n      pop\n      jump\t// out\n        /* \"contracts/4_Assignment_TodoApp.sol\":324:471  function addTask(string memory _task) public... */\n    tag_25:\n        /* \"contracts/4_Assignment_TodoApp.sol\":383:402  Task memory taskvar */\n      0x00\n        /* \"contracts/4_Assignment_TodoApp.sol\":405:423  Task(_task, false) */\n      mload(0x40)\n      dup1\n      0x40\n      add\n      0x40\n      mstore\n      dup1\n        /* \"contracts/4_Assignment_TodoApp.sol\":410:415  _task */\n      dup4\n        /* \"contracts/4_Assignment_TodoApp.sol\":405:423  Task(_task, false) */\n      dup2\n      mstore\n      0x20\n      add\n        /* \"contracts/4_Assignment_TodoApp.sol\":417:422  false */\n      0x00\n        /* \"contracts/4_Assignment_TodoApp.sol\":405:423  Task(_task, false) */\n      iszero\n      iszero\n      dup2\n      mstore\n      pop\n        /* \"contracts/4_Assignment_TodoApp.sol\":383:423  Task memory taskvar = Task(_task, false) */\n      swap1\n      pop\n        /* \"contracts/4_Assignment_TodoApp.sol\":433:438  Users */\n      0x01\n        /* \"contracts/4_Assignment_TodoApp.sol\":433:450  Users[msg.sender] */\n      0x00\n        /* \"contracts/4_Assignment_TodoApp.sol\":439:449  msg.sender */\n      caller\n        /* \"contracts/4_Assignment_TodoApp.sol\":433:450  Users[msg.sender] */\n      0xffffffffffffffffffffffffffffffffffffffff\n      and\n      0xffffffffffffffffffffffffffffffffffffffff\n      and\n      dup2\n      mstore\n      0x20\n      add\n      swap1\n      dup2\n      mstore\n      0x20\n      add\n      0x00\n      keccak256\n        /* \"contracts/4_Assignment_TodoApp.sol\":456:463  taskvar */\n      dup2\n        /* \"contracts/4_Assignment_TodoApp.sol\":433:464  Users[msg.sender].push(taskvar) */\n      swap1\n      dup1\n      0x01\n      dup2\n      sload\n      add\n      dup1\n      dup3\n      sstore\n      dup1\n      swap2\n      pop\n      pop\n      0x01\n      swap1\n      sub\n      swap1\n      0x00\n      mstore\n      keccak256(0x00, 0x20)\n      swap1\n      0x02\n      mul\n      add\n      0x00\n      swap1\n      swap2\n      swap1\n      swap2\n      swap1\n      swap2\n      pop\n      0x00\n      dup3\n      add\n      mload\n      dup2\n      0x00\n      add\n      swap1\n      dup2\n      tag_59\n      swap2\n      swap1\n      tag_60\n      jump\t// in\n    tag_59:\n      pop\n      0x20\n      dup3\n      add\n      mload\n      dup2\n      0x01\n      add\n      exp(0x0100, 0x00)\n      dup2\n      sload\n      dup2\n      0xff\n      mul\n      not\n      and\n      swap1\n      dup4\n      iszero\n      iszero\n      mul\n      or\n      swap1\n      sstore\n      pop\n      pop\n      pop\n        /* \"contracts/4_Assignment_TodoApp.sol\":373:471  {... */\n      pop\n        /* \"contracts/4_Assignment_TodoApp.sol\":324:471  function addTask(string memory _task) public... */\n      pop\n      jump\t// out\n        /* \"contracts/4_Assignment_TodoApp.sol\":744:875  function updateTask(uint256 _taskIndex, string memory _task) public... */\n    tag_29:\n        /* \"contracts/4_Assignment_TodoApp.sol\":863:868  _task */\n      dup1\n        /* \"contracts/4_Assignment_TodoApp.sol\":826:831  Users */\n      0x01\n        /* \"contracts/4_Assignment_TodoApp.sol\":826:843  Users[msg.sender] */\n      0x00\n        /* \"contracts/4_Assignment_TodoApp.sol\":832:842  msg.sender */\n      caller\n        /* \"contracts/4_Assignment_TodoApp.sol\":826:843  Users[msg.sender] */\n      0xffffffffffffffffffffffffffffffffffffffff\n      and\n      0xffffffffffffffffffffffffffffffffffffffff\n      and\n      dup2\n      mstore\n      0x20\n      add\n      swap1\n      dup2\n      mstore\n      0x20\n      add\n      0x00\n      keccak256\n        /* \"contracts/4_Assignment_TodoApp.sol\":844:854  _taskIndex */\n      dup4\n        /* \"contracts/4_Assignment_TodoApp.sol\":826:855  Users[msg.sender][_taskIndex] */\n      dup2\n      sload\n      dup2\n      lt\n      tag_62\n      jumpi\n      tag_63\n      tag_39\n      jump\t// in\n    tag_63:\n    tag_62:\n      swap1\n      0x00\n      mstore\n      keccak256(0x00, 0x20)\n      swap1\n      0x02\n      mul\n      add\n        /* \"contracts/4_Assignment_TodoApp.sol\":826:860  Users[msg.sender][_taskIndex].task */\n      0x00\n      add\n        /* \"contracts/4_Assignment_TodoApp.sol\":826:868  Users[msg.sender][_taskIndex].task = _task */\n      swap1\n      dup2\n      tag_65\n      swap2\n      swap1\n      tag_60\n      jump\t// in\n    tag_65:\n      pop\n        /* \"contracts/4_Assignment_TodoApp.sol\":744:875  function updateTask(uint256 _taskIndex, string memory _task) public... */\n      pop\n      pop\n      jump\t// out\n        /* \"contracts/4_Assignment_TodoApp.sol\":991:1083  function getDetails() public view returns(string memory)... */\n    tag_31:\n        /* \"contracts/4_Assignment_TodoApp.sol\":1033:1046  string memory */\n      0x60\n        /* \"contracts/4_Assignment_TodoApp.sol\":1069:1075  detail */\n      0x00\n        /* \"contracts/4_Assignment_TodoApp.sol\":1062:1076  return(detail) */\n      dup1\n      sload\n      tag_67\n      swap1\n      tag_42\n      jump\t// in\n    tag_67:\n      dup1\n      0x1f\n      add\n      0x20\n      dup1\n      swap2\n      div\n      mul\n      0x20\n      add\n      mload(0x40)\n      swap1\n      dup2\n      add\n      0x40\n      mstore\n      dup1\n      swap3\n      swap2\n      swap1\n      dup2\n      dup2\n      mstore\n      0x20\n      add\n      dup3\n      dup1\n      sload\n      tag_68\n      swap1\n      tag_42\n      jump\t// in\n    tag_68:\n      dup1\n      iszero\n      tag_69\n      jumpi\n      dup1\n      0x1f\n      lt\n      tag_70\n      jumpi\n      0x0100\n      dup1\n      dup4\n      sload\n      div\n      mul\n      dup4\n      mstore\n      swap2\n      0x20\n      add\n      swap2\n      jump(tag_69)\n    tag_70:\n      dup3\n      add\n      swap2\n      swap1\n      0x00\n      mstore\n      keccak256(0x00, 0x20)\n      swap1\n    tag_71:\n      dup2\n      sload\n      dup2\n      mstore\n      swap1\n      0x01\n      add\n      swap1\n      0x20\n      add\n      dup1\n      dup4\n      gt\n      tag_71\n      jumpi\n      dup3\n      swap1\n      sub\n      0x1f\n      and\n      dup3\n      add\n      swap2\n    tag_69:\n      pop\n      pop\n      pop\n      pop\n      pop\n      swap1\n      pop\n        /* \"contracts/4_Assignment_TodoApp.sol\":991:1083  function getDetails() public view returns(string memory)... */\n      swap1\n      jump\t// out\n    tag_35:\n      mload(0x40)\n      dup1\n      0x40\n      add\n      0x40\n      mstore\n      dup1\n      0x60\n      dup2\n      mstore\n      0x20\n      add\n      iszero(iszero(0x00))\n      dup2\n      mstore\n      pop\n      swap1\n      jump\t// out\n    tag_56:\n      pop\n      dup1\n      sload\n      tag_72\n      swap1\n      tag_42\n      jump\t// in\n    tag_72:\n      0x00\n      dup3\n      sstore\n      dup1\n      0x1f\n      lt\n      tag_74\n      jumpi\n      pop\n      jump(tag_73)\n    tag_74:\n      0x1f\n      add\n      0x20\n      swap1\n      div\n      swap1\n      0x00\n      mstore\n      keccak256(0x00, 0x20)\n      swap1\n      dup2\n      add\n      swap1\n      tag_75\n      swap2\n      swap1\n      tag_76\n      jump\t// in\n    tag_75:\n    tag_73:\n      pop\n      jump\t// out\n    tag_76:\n    tag_77:\n      dup1\n      dup3\n      gt\n      iszero\n      tag_78\n      jumpi\n      0x00\n      dup2\n      0x00\n      swap1\n      sstore\n      pop\n      0x01\n      add\n      jump(tag_77)\n    tag_78:\n      pop\n      swap1\n      jump\t// out\n        /* \"#utility.yul\":7:82   */\n    tag_79:\n        /* \"#utility.yul\":40:46   */\n      0x00\n        /* \"#utility.yul\":73:75   */\n      0x40\n        /* \"#utility.yul\":67:76   */\n      mload\n        /* \"#utility.yul\":57:76   */\n      swap1\n      pop\n        /* \"#utility.yul\":7:82   */\n      swap1\n      jump\t// out\n        /* \"#utility.yul\":88:205   */\n    tag_80:\n        /* \"#utility.yul\":197:198   */\n      0x00\n        /* \"#utility.yul\":194:195   */\n      dup1\n        /* \"#utility.yul\":187:199   */\n      revert\n        /* \"#utility.yul\":211:328   */\n    tag_81:\n        /* \"#utility.yul\":320:321   */\n      0x00\n        /* \"#utility.yul\":317:318   */\n      dup1\n        /* \"#utility.yul\":310:322   */\n      revert\n        /* \"#utility.yul\":334:411   */\n    tag_82:\n        /* \"#utility.yul\":371:378   */\n      0x00\n        /* \"#utility.yul\":400:405   */\n      dup2\n        /* \"#utility.yul\":389:405   */\n      swap1\n      pop\n        /* \"#utility.yul\":334:411   */\n      swap2\n      swap1\n      pop\n      jump\t// out\n        /* \"#utility.yul\":417:539   */\n    tag_83:\n        /* \"#utility.yul\":490:514   */\n      tag_128\n        /* \"#utility.yul\":508:513   */\n      dup2\n        /* \"#utility.yul\":490:514   */\n      tag_82\n      jump\t// in\n    tag_128:\n        /* \"#utility.yul\":483:488   */\n      dup2\n        /* \"#utility.yul\":480:515   */\n      eq\n        /* \"#utility.yul\":470:533   */\n      tag_129\n      jumpi\n        /* \"#utility.yul\":529:530   */\n      0x00\n        /* \"#utility.yul\":526:527   */\n      dup1\n        /* \"#utility.yul\":519:531   */\n      revert\n        /* \"#utility.yul\":470:533   */\n    tag_129:\n        /* \"#utility.yul\":417:539   */\n      pop\n      jump\t// out\n        /* \"#utility.yul\":545:684   */\n    tag_84:\n        /* \"#utility.yul\":591:596   */\n      0x00\n        /* \"#utility.yul\":629:635   */\n      dup2\n        /* \"#utility.yul\":616:636   */\n      calldataload\n        /* \"#utility.yul\":607:636   */\n      swap1\n      pop\n        /* \"#utility.yul\":645:678   */\n      tag_131\n        /* \"#utility.yul\":672:677   */\n      dup2\n        /* \"#utility.yul\":645:678   */\n      tag_83\n      jump\t// in\n    tag_131:\n        /* \"#utility.yul\":545:684   */\n      swap3\n      swap2\n      pop\n      pop\n      jump\t// out\n        /* \"#utility.yul\":690:1019   */\n    tag_11:\n        /* \"#utility.yul\":749:755   */\n      0x00\n        /* \"#utility.yul\":798:800   */\n      0x20\n        /* \"#utility.yul\":786:795   */\n      dup3\n        /* \"#utility.yul\":777:784   */\n      dup5\n        /* \"#utility.yul\":773:796   */\n      sub\n        /* \"#utility.yul\":769:801   */\n      slt\n        /* \"#utility.yul\":766:885   */\n      iszero\n      tag_133\n      jumpi\n        /* \"#utility.yul\":804:883   */\n      tag_134\n      tag_80\n      jump\t// in\n    tag_134:\n        /* \"#utility.yul\":766:885   */\n    tag_133:\n        /* \"#utility.yul\":924:925   */\n      0x00\n        /* \"#utility.yul\":949:1002   */\n      tag_135\n        /* \"#utility.yul\":994:1001   */\n      dup5\n        /* \"#utility.yul\":985:991   */\n      dup3\n        /* \"#utility.yul\":974:983   */\n      dup6\n        /* \"#utility.yul\":970:992   */\n      add\n        /* \"#utility.yul\":949:1002   */\n      tag_84\n      jump\t// in\n    tag_135:\n        /* \"#utility.yul\":939:1002   */\n      swap2\n      pop\n        /* \"#utility.yul\":895:1012   */\n      pop\n        /* \"#utility.yul\":690:1019   */\n      swap3\n      swap2\n      pop\n      pop\n      jump\t// out\n        /* \"#utility.yul\":1025:1124   */\n    tag_85:\n        /* \"#utility.yul\":1077:1083   */\n      0x00\n        /* \"#utility.yul\":1111:1116   */\n      dup2\n        /* \"#utility.yul\":1105:1117   */\n      mload\n        /* \"#utility.yul\":1095:1117   */\n      swap1\n      pop\n        /* \"#utility.yul\":1025:1124   */\n      swap2\n      swap1\n      pop\n      jump\t// out\n        /* \"#utility.yul\":1130:1289   */\n    tag_86:\n        /* \"#utility.yul\":1204:1215   */\n      0x00\n        /* \"#utility.yul\":1238:1244   */\n      dup3\n        /* \"#utility.yul\":1233:1236   */\n      dup3\n        /* \"#utility.yul\":1226:1245   */\n      mstore\n        /* \"#utility.yul\":1278:1282   */\n      0x20\n        /* \"#utility.yul\":1273:1276   */\n      dup3\n        /* \"#utility.yul\":1269:1283   */\n      add\n        /* \"#utility.yul\":1254:1283   */\n      swap1\n      pop\n        /* \"#utility.yul\":1130:1289   */\n      swap3\n      swap2\n      pop\n      pop\n      jump\t// out\n        /* \"#utility.yul\":1295:1541   */\n    tag_87:\n        /* \"#utility.yul\":1376:1377   */\n      0x00\n        /* \"#utility.yul\":1386:1499   */\n    tag_139:\n        /* \"#utility.yul\":1400:1406   */\n      dup4\n        /* \"#utility.yul\":1397:1398   */\n      dup2\n        /* \"#utility.yul\":1394:1407   */\n      lt\n        /* \"#utility.yul\":1386:1499   */\n      iszero\n      tag_141\n      jumpi\n        /* \"#utility.yul\":1485:1486   */\n      dup1\n        /* \"#utility.yul\":1480:1483   */\n      dup3\n        /* \"#utility.yul\":1476:1487   */\n      add\n        /* \"#utility.yul\":1470:1488   */\n      mload\n        /* \"#utility.yul\":1466:1467   */\n      dup2\n        /* \"#utility.yul\":1461:1464   */\n      dup5\n        /* \"#utility.yul\":1457:1468   */\n      add\n        /* \"#utility.yul\":1450:1489   */\n      mstore\n        /* \"#utility.yul\":1422:1424   */\n      0x20\n        /* \"#utility.yul\":1419:1420   */\n      dup2\n        /* \"#utility.yul\":1415:1425   */\n      add\n        /* \"#utility.yul\":1410:1425   */\n      swap1\n      pop\n        /* \"#utility.yul\":1386:1499   */\n      jump(tag_139)\n    tag_141:\n        /* \"#utility.yul\":1533:1534   */\n      0x00\n        /* \"#utility.yul\":1524:1530   */\n      dup5\n        /* \"#utility.yul\":1519:1522   */\n      dup5\n        /* \"#utility.yul\":1515:1531   */\n      add\n        /* \"#utility.yul\":1508:1535   */\n      mstore\n        /* \"#utility.yul\":1357:1541   */\n      pop\n        /* \"#utility.yul\":1295:1541   */\n      pop\n      pop\n      pop\n      jump\t// out\n        /* \"#utility.yul\":1547:1649   */\n    tag_88:\n        /* \"#utility.yul\":1588:1594   */\n      0x00\n        /* \"#utility.yul\":1639:1641   */\n      0x1f\n        /* \"#utility.yul\":1635:1642   */\n      not\n        /* \"#utility.yul\":1630:1632   */\n      0x1f\n        /* \"#utility.yul\":1623:1628   */\n      dup4\n        /* \"#utility.yul\":1619:1633   */\n      add\n        /* \"#utility.yul\":1615:1643   */\n      and\n        /* \"#utility.yul\":1605:1643   */\n      swap1\n      pop\n        /* \"#utility.yul\":1547:1649   */\n      swap2\n      swap1\n      pop\n      jump\t// out\n        /* \"#utility.yul\":1655:2012   */\n    tag_89:\n        /* \"#utility.yul\":1733:1736   */\n      0x00\n        /* \"#utility.yul\":1761:1800   */\n      tag_144\n        /* \"#utility.yul\":1794:1799   */\n      dup3\n        /* \"#utility.yul\":1761:1800   */\n      tag_85\n      jump\t// in\n    tag_144:\n        /* \"#utility.yul\":1816:1877   */\n      tag_145\n        /* \"#utility.yul\":1870:1876   */\n      dup2\n        /* \"#utility.yul\":1865:1868   */\n      dup6\n        /* \"#utility.yul\":1816:1877   */\n      tag_86\n      jump\t// in\n    tag_145:\n        /* \"#utility.yul\":1809:1877   */\n      swap4\n      pop\n        /* \"#utility.yul\":1886:1951   */\n      tag_146\n        /* \"#utility.yul\":1944:1950   */\n      dup2\n        /* \"#utility.yul\":1939:1942   */\n      dup6\n        /* \"#utility.yul\":1932:1936   */\n      0x20\n        /* \"#utility.yul\":1925:1930   */\n      dup7\n        /* \"#utility.yul\":1921:1937   */\n      add\n        /* \"#utility.yul\":1886:1951   */\n      tag_87\n      jump\t// in\n    tag_146:\n        /* \"#utility.yul\":1976:2005   */\n      tag_147\n        /* \"#utility.yul\":1998:2004   */\n      dup2\n        /* \"#utility.yul\":1976:2005   */\n      tag_88\n      jump\t// in\n    tag_147:\n        /* \"#utility.yul\":1971:1974   */\n      dup5\n        /* \"#utility.yul\":1967:2006   */\n      add\n        /* \"#utility.yul\":1960:2006   */\n      swap2\n      pop\n        /* \"#utility.yul\":1737:2012   */\n      pop\n        /* \"#utility.yul\":1655:2012   */\n      swap3\n      swap2\n      pop\n      pop\n      jump\t// out\n        /* \"#utility.yul\":2018:2108   */\n    tag_90:\n        /* \"#utility.yul\":2052:2059   */\n      0x00\n        /* \"#utility.yul\":2095:2100   */\n      dup2\n        /* \"#utility.yul\":2088:2101   */\n      iszero\n        /* \"#utility.yul\":2081:2102   */\n      iszero\n        /* \"#utility.yul\":2070:2102   */\n      swap1\n      pop\n        /* \"#utility.yul\":2018:2108   */\n      swap2\n      swap1\n      pop\n      jump\t// out\n        /* \"#utility.yul\":2114:2213   */\n    tag_91:\n        /* \"#utility.yul\":2185:2206   */\n      tag_150\n        /* \"#utility.yul\":2200:2205   */\n      dup2\n        /* \"#utility.yul\":2185:2206   */\n      tag_90\n      jump\t// in\n    tag_150:\n        /* \"#utility.yul\":2180:2183   */\n      dup3\n        /* \"#utility.yul\":2173:2207   */\n      mstore\n        /* \"#utility.yul\":2114:2213   */\n      pop\n      pop\n      jump\t// out\n        /* \"#utility.yul\":2269:2861   */\n    tag_92:\n        /* \"#utility.yul\":2378:2381   */\n      0x00\n        /* \"#utility.yul\":2414:2418   */\n      0x40\n        /* \"#utility.yul\":2409:2412   */\n      dup4\n        /* \"#utility.yul\":2405:2419   */\n      add\n        /* \"#utility.yul\":2501:2505   */\n      0x00\n        /* \"#utility.yul\":2494:2499   */\n      dup4\n        /* \"#utility.yul\":2490:2506   */\n      add\n        /* \"#utility.yul\":2484:2507   */\n      mload\n        /* \"#utility.yul\":2554:2557   */\n      dup5\n        /* \"#utility.yul\":2548:2552   */\n      dup3\n        /* \"#utility.yul\":2544:2558   */\n      sub\n        /* \"#utility.yul\":2537:2541   */\n      0x00\n        /* \"#utility.yul\":2532:2535   */\n      dup7\n        /* \"#utility.yul\":2528:2542   */\n      add\n        /* \"#utility.yul\":2521:2559   */\n      mstore\n        /* \"#utility.yul\":2580:2653   */\n      tag_152\n        /* \"#utility.yul\":2648:2652   */\n      dup3\n        /* \"#utility.yul\":2634:2646   */\n      dup3\n        /* \"#utility.yul\":2580:2653   */\n      tag_89\n      jump\t// in\n    tag_152:\n        /* \"#utility.yul\":2572:2653   */\n      swap2\n      pop\n        /* \"#utility.yul\":2429:2664   */\n      pop\n        /* \"#utility.yul\":2748:2752   */\n      0x20\n        /* \"#utility.yul\":2741:2746   */\n      dup4\n        /* \"#utility.yul\":2737:2753   */\n      add\n        /* \"#utility.yul\":2731:2754   */\n      mload\n        /* \"#utility.yul\":2767:2824   */\n      tag_153\n        /* \"#utility.yul\":2818:2822   */\n      0x20\n        /* \"#utility.yul\":2813:2816   */\n      dup7\n        /* \"#utility.yul\":2809:2823   */\n      add\n        /* \"#utility.yul\":2795:2807   */\n      dup3\n        /* \"#utility.yul\":2767:2824   */\n      tag_91\n      jump\t// in\n    tag_153:\n        /* \"#utility.yul\":2674:2834   */\n      pop\n        /* \"#utility.yul\":2851:2855   */\n      dup1\n        /* \"#utility.yul\":2844:2855   */\n      swap2\n      pop\n        /* \"#utility.yul\":2383:2861   */\n      pop\n        /* \"#utility.yul\":2269:2861   */\n      swap3\n      swap2\n      pop\n      pop\n      jump\t// out\n        /* \"#utility.yul\":2867:3220   */\n    tag_14:\n        /* \"#utility.yul\":3000:3004   */\n      0x00\n        /* \"#utility.yul\":3038:3040   */\n      0x20\n        /* \"#utility.yul\":3027:3036   */\n      dup3\n        /* \"#utility.yul\":3023:3041   */\n      add\n        /* \"#utility.yul\":3015:3041   */\n      swap1\n      pop\n        /* \"#utility.yul\":3087:3096   */\n      dup2\n        /* \"#utility.yul\":3081:3085   */\n      dup2\n        /* \"#utility.yul\":3077:3097   */\n      sub\n        /* \"#utility.yul\":3073:3074   */\n      0x00\n        /* \"#utility.yul\":3062:3071   */\n      dup4\n        /* \"#utility.yul\":3058:3075   */\n      add\n        /* \"#utility.yul\":3051:3098   */\n      mstore\n        /* \"#utility.yul\":3115:3213   */\n      tag_155\n        /* \"#utility.yul\":3208:3212   */\n      dup2\n        /* \"#utility.yul\":3199:3205   */\n      dup5\n        /* \"#utility.yul\":3115:3213   */\n      tag_92\n      jump\t// in\n    tag_155:\n        /* \"#utility.yul\":3107:3213   */\n      swap1\n      pop\n        /* \"#utility.yul\":2867:3220   */\n      swap3\n      swap2\n      pop\n      pop\n      jump\t// out\n        /* \"#utility.yul\":3226:3342   */\n    tag_93:\n        /* \"#utility.yul\":3296:3317   */\n      tag_157\n        /* \"#utility.yul\":3311:3316   */\n      dup2\n        /* \"#utility.yul\":3296:3317   */\n      tag_90\n      jump\t// in\n    tag_157:\n        /* \"#utility.yul\":3289:3294   */\n      dup2\n        /* \"#utility.yul\":3286:3318   */\n      eq\n        /* \"#utility.yul\":3276:3336   */\n      tag_158\n      jumpi\n        /* \"#utility.yul\":3332:3333   */\n      0x00\n        /* \"#utility.yul\":3329:3330   */\n      dup1\n        /* \"#utility.yul\":3322:3334   */\n      revert\n        /* \"#utility.yul\":3276:3336   */\n    tag_158:\n        /* \"#utility.yul\":3226:3342   */\n      pop\n      jump\t// out\n        /* \"#utility.yul\":3348:3481   */\n    tag_94:\n        /* \"#utility.yul\":3391:3396   */\n      0x00\n        /* \"#utility.yul\":3429:3435   */\n      dup2\n        /* \"#utility.yul\":3416:3436   */\n      calldataload\n        /* \"#utility.yul\":3407:3436   */\n      swap1\n      pop\n        /* \"#utility.yul\":3445:3475   */\n      tag_160\n        /* \"#utility.yul\":3469:3474   */\n      dup2\n        /* \"#utility.yul\":3445:3475   */\n      tag_93\n      jump\t// in\n    tag_160:\n        /* \"#utility.yul\":3348:3481   */\n      swap3\n      swap2\n      pop\n      pop\n      jump\t// out\n        /* \"#utility.yul\":3487:3955   */\n    tag_17:\n        /* \"#utility.yul\":3552:3558   */\n      0x00\n        /* \"#utility.yul\":3560:3566   */\n      dup1\n        /* \"#utility.yul\":3609:3611   */\n      0x40\n        /* \"#utility.yul\":3597:3606   */\n      dup4\n        /* \"#utility.yul\":3588:3595   */\n      dup6\n        /* \"#utility.yul\":3584:3607   */\n      sub\n        /* \"#utility.yul\":3580:3612   */\n      slt\n        /* \"#utility.yul\":3577:3696   */\n      iszero\n      tag_162\n      jumpi\n        /* \"#utility.yul\":3615:3694   */\n      tag_163\n      tag_80\n      jump\t// in\n    tag_163:\n        /* \"#utility.yul\":3577:3696   */\n    tag_162:\n        /* \"#utility.yul\":3735:3736   */\n      0x00\n        /* \"#utility.yul\":3760:3813   */\n      tag_164\n        /* \"#utility.yul\":3805:3812   */\n      dup6\n        /* \"#utility.yul\":3796:3802   */\n      dup3\n        /* \"#utility.yul\":3785:3794   */\n      dup7\n        /* \"#utility.yul\":3781:3803   */\n      add\n        /* \"#utility.yul\":3760:3813   */\n      tag_84\n      jump\t// in\n    tag_164:\n        /* \"#utility.yul\":3750:3813   */\n      swap3\n      pop\n        /* \"#utility.yul\":3706:3823   */\n      pop\n        /* \"#utility.yul\":3862:3864   */\n      0x20\n        /* \"#utility.yul\":3888:3938   */\n      tag_165\n        /* \"#utility.yul\":3930:3937   */\n      dup6\n        /* \"#utility.yul\":3921:3927   */\n      dup3\n        /* \"#utility.yul\":3910:3919   */\n      dup7\n        /* \"#utility.yul\":3906:3928   */\n      add\n        /* \"#utility.yul\":3888:3938   */\n      tag_94\n      jump\t// in\n    tag_165:\n        /* \"#utility.yul\":3878:3938   */\n      swap2\n      pop\n        /* \"#utility.yul\":3833:3948   */\n      pop\n        /* \"#utility.yul\":3487:3955   */\n      swap3\n      pop\n      swap3\n      swap1\n      pop\n      jump\t// out\n        /* \"#utility.yul\":3961:4078   */\n    tag_95:\n        /* \"#utility.yul\":4070:4071   */\n      0x00\n        /* \"#utility.yul\":4067:4068   */\n      dup1\n        /* \"#utility.yul\":4060:4072   */\n      revert\n        /* \"#utility.yul\":4084:4201   */\n    tag_96:\n        /* \"#utility.yul\":4193:4194   */\n      0x00\n        /* \"#utility.yul\":4190:4191   */\n      dup1\n        /* \"#utility.yul\":4183:4195   */\n      revert\n        /* \"#utility.yul\":4207:4387   */\n    tag_97:\n        /* \"#utility.yul\":4255:4332   */\n      0x4e487b7100000000000000000000000000000000000000000000000000000000\n        /* \"#utility.yul\":4252:4253   */\n      0x00\n        /* \"#utility.yul\":4245:4333   */\n      mstore\n        /* \"#utility.yul\":4352:4356   */\n      0x41\n        /* \"#utility.yul\":4349:4350   */\n      0x04\n        /* \"#utility.yul\":4342:4357   */\n      mstore\n        /* \"#utility.yul\":4376:4380   */\n      0x24\n        /* \"#utility.yul\":4373:4374   */\n      0x00\n        /* \"#utility.yul\":4366:4381   */\n      revert\n        /* \"#utility.yul\":4393:4674   */\n    tag_98:\n        /* \"#utility.yul\":4476:4503   */\n      tag_170\n        /* \"#utility.yul\":4498:4502   */\n      dup3\n        /* \"#utility.yul\":4476:4503   */\n      tag_88\n      jump\t// in\n    tag_170:\n        /* \"#utility.yul\":4468:4474   */\n      dup2\n        /* \"#utility.yul\":4464:4504   */\n      add\n        /* \"#utility.yul\":4606:4612   */\n      dup2\n        /* \"#utility.yul\":4594:4604   */\n      dup2\n        /* \"#utility.yul\":4591:4613   */\n      lt\n        /* \"#utility.yul\":4570:4588   */\n      0xffffffffffffffff\n        /* \"#utility.yul\":4558:4568   */\n      dup3\n        /* \"#utility.yul\":4555:4589   */\n      gt\n        /* \"#utility.yul\":4552:4614   */\n      or\n        /* \"#utility.yul\":4549:4637   */\n      iszero\n      tag_171\n      jumpi\n        /* \"#utility.yul\":4617:4635   */\n      tag_172\n      tag_97\n      jump\t// in\n    tag_172:\n        /* \"#utility.yul\":4549:4637   */\n    tag_171:\n        /* \"#utility.yul\":4657:4667   */\n      dup1\n        /* \"#utility.yul\":4653:4655   */\n      0x40\n        /* \"#utility.yul\":4646:4668   */\n      mstore\n        /* \"#utility.yul\":4436:4674   */\n      pop\n        /* \"#utility.yul\":4393:4674   */\n      pop\n      pop\n      jump\t// out\n        /* \"#utility.yul\":4680:4809   */\n    tag_99:\n        /* \"#utility.yul\":4714:4720   */\n      0x00\n        /* \"#utility.yul\":4741:4761   */\n      tag_174\n      tag_79\n      jump\t// in\n    tag_174:\n        /* \"#utility.yul\":4731:4761   */\n      swap1\n      pop\n        /* \"#utility.yul\":4770:4803   */\n      tag_175\n        /* \"#utility.yul\":4798:4802   */\n      dup3\n        /* \"#utility.yul\":4790:4796   */\n      dup3\n        /* \"#utility.yul\":4770:4803   */\n      tag_98\n      jump\t// in\n    tag_175:\n        /* \"#utility.yul\":4680:4809   */\n      swap2\n      swap1\n      pop\n      jump\t// out\n        /* \"#utility.yul\":4815:5123   */\n    tag_100:\n        /* \"#utility.yul\":4877:4881   */\n      0x00\n        /* \"#utility.yul\":4967:4985   */\n      0xffffffffffffffff\n        /* \"#utility.yul\":4959:4965   */\n      dup3\n        /* \"#utility.yul\":4956:4986   */\n      gt\n        /* \"#utility.yul\":4953:5009   */\n      iszero\n      tag_177\n      jumpi\n        /* \"#utility.yul\":4989:5007   */\n      tag_178\n      tag_97\n      jump\t// in\n    tag_178:\n        /* \"#utility.yul\":4953:5009   */\n    tag_177:\n        /* \"#utility.yul\":5027:5056   */\n      tag_179\n        /* \"#utility.yul\":5049:5055   */\n      dup3\n        /* \"#utility.yul\":5027:5056   */\n      tag_88\n      jump\t// in\n    tag_179:\n        /* \"#utility.yul\":5019:5056   */\n      swap1\n      pop\n        /* \"#utility.yul\":5111:5115   */\n      0x20\n        /* \"#utility.yul\":5105:5109   */\n      dup2\n        /* \"#utility.yul\":5101:5116   */\n      add\n        /* \"#utility.yul\":5093:5116   */\n      swap1\n      pop\n        /* \"#utility.yul\":4815:5123   */\n      swap2\n      swap1\n      pop\n      jump\t// out\n        /* \"#utility.yul\":5129:5275   */\n    tag_101:\n        /* \"#utility.yul\":5226:5232   */\n      dup3\n        /* \"#utility.yul\":5221:5224   */\n      dup2\n        /* \"#utility.yul\":5216:5219   */\n      dup4\n        /* \"#utility.yul\":5203:5233   */\n      calldatacopy\n        /* \"#utility.yul\":5267:5268   */\n      0x00\n        /* \"#utility.yul\":5258:5264   */\n      dup4\n        /* \"#utility.yul\":5253:5256   */\n      dup4\n        /* \"#utility.yul\":5249:5265   */\n      add\n        /* \"#utility.yul\":5242:5269   */\n      mstore\n        /* \"#utility.yul\":5129:5275   */\n      pop\n      pop\n      pop\n      jump\t// out\n        /* \"#utility.yul\":5281:5706   */\n    tag_102:\n        /* \"#utility.yul\":5359:5364   */\n      0x00\n        /* \"#utility.yul\":5384:5450   */\n      tag_182\n        /* \"#utility.yul\":5400:5449   */\n      tag_183\n        /* \"#utility.yul\":5442:5448   */\n      dup5\n        /* \"#utility.yul\":5400:5449   */\n      tag_100\n      jump\t// in\n    tag_183:\n        /* \"#utility.yul\":5384:5450   */\n      tag_99\n      jump\t// in\n    tag_182:\n        /* \"#utility.yul\":5375:5450   */\n      swap1\n      pop\n        /* \"#utility.yul\":5473:5479   */\n      dup3\n        /* \"#utility.yul\":5466:5471   */\n      dup2\n        /* \"#utility.yul\":5459:5480   */\n      mstore\n        /* \"#utility.yul\":5511:5515   */\n      0x20\n        /* \"#utility.yul\":5504:5509   */\n      dup2\n        /* \"#utility.yul\":5500:5516   */\n      add\n        /* \"#utility.yul\":5549:5552   */\n      dup5\n        /* \"#utility.yul\":5540:5546   */\n      dup5\n        /* \"#utility.yul\":5535:5538   */\n      dup5\n        /* \"#utility.yul\":5531:5547   */\n      add\n        /* \"#utility.yul\":5528:5553   */\n      gt\n        /* \"#utility.yul\":5525:5637   */\n      iszero\n      tag_184\n      jumpi\n        /* \"#utility.yul\":5556:5635   */\n      tag_185\n      tag_96\n      jump\t// in\n    tag_185:\n        /* \"#utility.yul\":5525:5637   */\n    tag_184:\n        /* \"#utility.yul\":5646:5700   */\n      tag_186\n        /* \"#utility.yul\":5693:5699   */\n      dup5\n        /* \"#utility.yul\":5688:5691   */\n      dup3\n        /* \"#utility.yul\":5683:5686   */\n      dup6\n        /* \"#utility.yul\":5646:5700   */\n      tag_101\n      jump\t// in\n    tag_186:\n        /* \"#utility.yul\":5365:5706   */\n      pop\n        /* \"#utility.yul\":5281:5706   */\n      swap4\n      swap3\n      pop\n      pop\n      pop\n      jump\t// out\n        /* \"#utility.yul\":5726:6066   */\n    tag_103:\n        /* \"#utility.yul\":5782:5787   */\n      0x00\n        /* \"#utility.yul\":5831:5834   */\n      dup3\n        /* \"#utility.yul\":5824:5828   */\n      0x1f\n        /* \"#utility.yul\":5816:5822   */\n      dup4\n        /* \"#utility.yul\":5812:5829   */\n      add\n        /* \"#utility.yul\":5808:5835   */\n      slt\n        /* \"#utility.yul\":5798:5920   */\n      tag_188\n      jumpi\n        /* \"#utility.yul\":5839:5918   */\n      tag_189\n      tag_95\n      jump\t// in\n    tag_189:\n        /* \"#utility.yul\":5798:5920   */\n    tag_188:\n        /* \"#utility.yul\":5956:5962   */\n      dup2\n        /* \"#utility.yul\":5943:5963   */\n      calldataload\n        /* \"#utility.yul\":5981:6060   */\n      tag_190\n        /* \"#utility.yul\":6056:6059   */\n      dup5\n        /* \"#utility.yul\":6048:6054   */\n      dup3\n        /* \"#utility.yul\":6041:6045   */\n      0x20\n        /* \"#utility.yul\":6033:6039   */\n      dup7\n        /* \"#utility.yul\":6029:6046   */\n      add\n        /* \"#utility.yul\":5981:6060   */\n      tag_102\n      jump\t// in\n    tag_190:\n        /* \"#utility.yul\":5972:6060   */\n      swap2\n      pop\n        /* \"#utility.yul\":5788:6066   */\n      pop\n        /* \"#utility.yul\":5726:6066   */\n      swap3\n      swap2\n      pop\n      pop\n      jump\t// out\n        /* \"#utility.yul\":6072:6581   */\n    tag_24:\n        /* \"#utility.yul\":6141:6147   */\n      0x00\n        /* \"#utility.yul\":6190:6192   */\n      0x20\n        /* \"#utility.yul\":6178:6187   */\n      dup3\n        /* \"#utility.yul\":6169:6176   */\n      dup5\n        /* \"#utility.yul\":6165:6188   */\n      sub\n        /* \"#utility.yul\":6161:6193   */\n      slt\n        /* \"#utility.yul\":6158:6277   */\n      iszero\n      tag_192\n      jumpi\n        /* \"#utility.yul\":6196:6275   */\n      tag_193\n      tag_80\n      jump\t// in\n    tag_193:\n        /* \"#utility.yul\":6158:6277   */\n    tag_192:\n        /* \"#utility.yul\":6344:6345   */\n      0x00\n        /* \"#utility.yul\":6333:6342   */\n      dup3\n        /* \"#utility.yul\":6329:6346   */\n      add\n        /* \"#utility.yul\":6316:6347   */\n      calldataload\n        /* \"#utility.yul\":6374:6392   */\n      0xffffffffffffffff\n        /* \"#utility.yul\":6366:6372   */\n      dup2\n        /* \"#utility.yul\":6363:6393   */\n      gt\n        /* \"#utility.yul\":6360:6477   */\n      iszero\n      tag_194\n      jumpi\n        /* \"#utility.yul\":6396:6475   */\n      tag_195\n      tag_81\n      jump\t// in\n    tag_195:\n        /* \"#utility.yul\":6360:6477   */\n    tag_194:\n        /* \"#utility.yul\":6501:6564   */\n      tag_196\n        /* \"#utility.yul\":6556:6563   */\n      dup5\n        /* \"#utility.yul\":6547:6553   */\n      dup3\n        /* \"#utility.yul\":6536:6545   */\n      dup6\n        /* \"#utility.yul\":6532:6554   */\n      add\n        /* \"#utility.yul\":6501:6564   */\n      tag_103\n      jump\t// in\n    tag_196:\n        /* \"#utility.yul\":6491:6564   */\n      swap2\n      pop\n        /* \"#utility.yul\":6287:6574   */\n      pop\n        /* \"#utility.yul\":6072:6581   */\n      swap3\n      swap2\n      pop\n      pop\n      jump\t// out\n        /* \"#utility.yul\":6587:7241   */\n    tag_28:\n        /* \"#utility.yul\":6665:6671   */\n      0x00\n        /* \"#utility.yul\":6673:6679   */\n      dup1\n        /* \"#utility.yul\":6722:6724   */\n      0x40\n        /* \"#utility.yul\":6710:6719   */\n      dup4\n        /* \"#utility.yul\":6701:6708   */\n      dup6\n        /* \"#utility.yul\":6697:6720   */\n      sub\n        /* \"#utility.yul\":6693:6725   */\n      slt\n        /* \"#utility.yul\":6690:6809   */\n      iszero\n      tag_198\n      jumpi\n        /* \"#utility.yul\":6728:6807   */\n      tag_199\n      tag_80\n      jump\t// in\n    tag_199:\n        /* \"#utility.yul\":6690:6809   */\n    tag_198:\n        /* \"#utility.yul\":6848:6849   */\n      0x00\n        /* \"#utility.yul\":6873:6926   */\n      tag_200\n        /* \"#utility.yul\":6918:6925   */\n      dup6\n        /* \"#utility.yul\":6909:6915   */\n      dup3\n        /* \"#utility.yul\":6898:6907   */\n      dup7\n        /* \"#utility.yul\":6894:6916   */\n      add\n        /* \"#utility.yul\":6873:6926   */\n      tag_84\n      jump\t// in\n    tag_200:\n        /* \"#utility.yul\":6863:6926   */\n      swap3\n      pop\n        /* \"#utility.yul\":6819:6936   */\n      pop\n        /* \"#utility.yul\":7003:7005   */\n      0x20\n        /* \"#utility.yul\":6992:7001   */\n      dup4\n        /* \"#utility.yul\":6988:7006   */\n      add\n        /* \"#utility.yul\":6975:7007   */\n      calldataload\n        /* \"#utility.yul\":7034:7052   */\n      0xffffffffffffffff\n        /* \"#utility.yul\":7026:7032   */\n      dup2\n        /* \"#utility.yul\":7023:7053   */\n      gt\n        /* \"#utility.yul\":7020:7137   */\n      iszero\n      tag_201\n      jumpi\n        /* \"#utility.yul\":7056:7135   */\n      tag_202\n      tag_81\n      jump\t// in\n    tag_202:\n        /* \"#utility.yul\":7020:7137   */\n    tag_201:\n        /* \"#utility.yul\":7161:7224   */\n      tag_203\n        /* \"#utility.yul\":7216:7223   */\n      dup6\n        /* \"#utility.yul\":7207:7213   */\n      dup3\n        /* \"#utility.yul\":7196:7205   */\n      dup7\n        /* \"#utility.yul\":7192:7214   */\n      add\n        /* \"#utility.yul\":7161:7224   */\n      tag_103\n      jump\t// in\n    tag_203:\n        /* \"#utility.yul\":7151:7224   */\n      swap2\n      pop\n        /* \"#utility.yul\":6946:7234   */\n      pop\n        /* \"#utility.yul\":6587:7241   */\n      swap3\n      pop\n      swap3\n      swap1\n      pop\n      jump\t// out\n        /* \"#utility.yul\":7247:7416   */\n    tag_104:\n        /* \"#utility.yul\":7331:7342   */\n      0x00\n        /* \"#utility.yul\":7365:7371   */\n      dup3\n        /* \"#utility.yul\":7360:7363   */\n      dup3\n        /* \"#utility.yul\":7353:7372   */\n      mstore\n        /* \"#utility.yul\":7405:7409   */\n      0x20\n        /* \"#utility.yul\":7400:7403   */\n      dup3\n        /* \"#utility.yul\":7396:7410   */\n      add\n        /* \"#utility.yul\":7381:7410   */\n      swap1\n      pop\n        /* \"#utility.yul\":7247:7416   */\n      swap3\n      swap2\n      pop\n      pop\n      jump\t// out\n        /* \"#utility.yul\":7422:7799   */\n    tag_105:\n        /* \"#utility.yul\":7510:7513   */\n      0x00\n        /* \"#utility.yul\":7538:7577   */\n      tag_206\n        /* \"#utility.yul\":7571:7576   */\n      dup3\n        /* \"#utility.yul\":7538:7577   */\n      tag_85\n      jump\t// in\n    tag_206:\n        /* \"#utility.yul\":7593:7664   */\n      tag_207\n        /* \"#utility.yul\":7657:7663   */\n      dup2\n        /* \"#utility.yul\":7652:7655   */\n      dup6\n        /* \"#utility.yul\":7593:7664   */\n      tag_104\n      jump\t// in\n    tag_207:\n        /* \"#utility.yul\":7586:7664   */\n      swap4\n      pop\n        /* \"#utility.yul\":7673:7738   */\n      tag_208\n        /* \"#utility.yul\":7731:7737   */\n      dup2\n        /* \"#utility.yul\":7726:7729   */\n      dup6\n        /* \"#utility.yul\":7719:7723   */\n      0x20\n        /* \"#utility.yul\":7712:7717   */\n      dup7\n        /* \"#utility.yul\":7708:7724   */\n      add\n        /* \"#utility.yul\":7673:7738   */\n      tag_87\n      jump\t// in\n    tag_208:\n        /* \"#utility.yul\":7763:7792   */\n      tag_209\n        /* \"#utility.yul\":7785:7791   */\n      dup2\n        /* \"#utility.yul\":7763:7792   */\n      tag_88\n      jump\t// in\n    tag_209:\n        /* \"#utility.yul\":7758:7761   */\n      dup5\n        /* \"#utility.yul\":7754:7793   */\n      add\n        /* \"#utility.yul\":7747:7793   */\n      swap2\n      pop\n        /* \"#utility.yul\":7514:7799   */\n      pop\n        /* \"#utility.yul\":7422:7799   */\n      swap3\n      swap2\n      pop\n      pop\n      jump\t// out\n        /* \"#utility.yul\":7805:8118   */\n    tag_33:\n        /* \"#utility.yul\":7918:7922   */\n      0x00\n        /* \"#utility.yul\":7956:7958   */\n      0x20\n        /* \"#utility.yul\":7945:7954   */\n      dup3\n        /* \"#utility.yul\":7941:7959   */\n      add\n        /* \"#utility.yul\":7933:7959   */\n      swap1\n      pop\n        /* \"#utility.yul\":8005:8014   */\n      dup2\n        /* \"#utility.yul\":7999:8003   */\n      dup2\n        /* \"#utility.yul\":7995:8015   */\n      sub\n        /* \"#utility.yul\":7991:7992   */\n      0x00\n        /* \"#utility.yul\":7980:7989   */\n      dup4\n        /* \"#utility.yul\":7976:7993   */\n      add\n        /* \"#utility.yul\":7969:8016   */\n      mstore\n        /* \"#utility.yul\":8033:8111   */\n      tag_211\n        /* \"#utility.yul\":8106:8110   */\n      dup2\n        /* \"#utility.yul\":8097:8103   */\n      dup5\n        /* \"#utility.yul\":8033:8111   */\n      tag_105\n      jump\t// in\n    tag_211:\n        /* \"#utility.yul\":8025:8111   */\n      swap1\n      pop\n        /* \"#utility.yul\":7805:8118   */\n      swap3\n      swap2\n      pop\n      pop\n      jump\t// out\n        /* \"#utility.yul\":8124:8304   */\n    tag_39:\n        /* \"#utility.yul\":8172:8249   */\n      0x4e487b7100000000000000000000000000000000000000000000000000000000\n        /* \"#utility.yul\":8169:8170   */\n      0x00\n        /* \"#utility.yul\":8162:8250   */\n      mstore\n        /* \"#utility.yul\":8269:8273   */\n      0x32\n        /* \"#utility.yul\":8266:8267   */\n      0x04\n        /* \"#utility.yul\":8259:8274   */\n      mstore\n        /* \"#utility.yul\":8293:8297   */\n      0x24\n        /* \"#utility.yul\":8290:8291   */\n      0x00\n        /* \"#utility.yul\":8283:8298   */\n      revert\n        /* \"#utility.yul\":8310:8490   */\n    tag_106:\n        /* \"#utility.yul\":8358:8435   */\n      0x4e487b7100000000000000000000000000000000000000000000000000000000\n        /* \"#utility.yul\":8355:8356   */\n      0x00\n        /* \"#utility.yul\":8348:8436   */\n      mstore\n        /* \"#utility.yul\":8455:8459   */\n      0x22\n        /* \"#utility.yul\":8452:8453   */\n      0x04\n        /* \"#utility.yul\":8445:8460   */\n      mstore\n        /* \"#utility.yul\":8479:8483   */\n      0x24\n        /* \"#utility.yul\":8476:8477   */\n      0x00\n        /* \"#utility.yul\":8469:8484   */\n      revert\n        /* \"#utility.yul\":8496:8816   */\n    tag_42:\n        /* \"#utility.yul\":8540:8546   */\n      0x00\n        /* \"#utility.yul\":8577:8578   */\n      0x02\n        /* \"#utility.yul\":8571:8575   */\n      dup3\n        /* \"#utility.yul\":8567:8579   */\n      div\n        /* \"#utility.yul\":8557:8579   */\n      swap1\n      pop\n        /* \"#utility.yul\":8624:8625   */\n      0x01\n        /* \"#utility.yul\":8618:8622   */\n      dup3\n        /* \"#utility.yul\":8614:8626   */\n      and\n        /* \"#utility.yul\":8645:8663   */\n      dup1\n        /* \"#utility.yul\":8635:8716   */\n      tag_215\n      jumpi\n        /* \"#utility.yul\":8701:8705   */\n      0x7f\n        /* \"#utility.yul\":8693:8699   */\n      dup3\n        /* \"#utility.yul\":8689:8706   */\n      and\n        /* \"#utility.yul\":8679:8706   */\n      swap2\n      pop\n        /* \"#utility.yul\":8635:8716   */\n    tag_215:\n        /* \"#utility.yul\":8763:8765   */\n      0x20\n        /* \"#utility.yul\":8755:8761   */\n      dup3\n        /* \"#utility.yul\":8752:8766   */\n      lt\n        /* \"#utility.yul\":8732:8750   */\n      dup2\n        /* \"#utility.yul\":8729:8767   */\n      sub\n        /* \"#utility.yul\":8726:8810   */\n      tag_216\n      jumpi\n        /* \"#utility.yul\":8782:8800   */\n      tag_217\n      tag_106\n      jump\t// in\n    tag_217:\n        /* \"#utility.yul\":8726:8810   */\n    tag_216:\n        /* \"#utility.yul\":8547:8816   */\n      pop\n        /* \"#utility.yul\":8496:8816   */\n      swap2\n      swap1\n      pop\n      jump\t// out\n        /* \"#utility.yul\":8822:8963   */\n    tag_107:\n        /* \"#utility.yul\":8871:8875   */\n      0x00\n        /* \"#utility.yul\":8894:8897   */\n      dup2\n        /* \"#utility.yul\":8886:8897   */\n      swap1\n      pop\n        /* \"#utility.yul\":8917:8920   */\n      dup2\n        /* \"#utility.yul\":8914:8915   */\n      0x00\n        /* \"#utility.yul\":8907:8921   */\n      mstore\n        /* \"#utility.yul\":8951:8955   */\n      0x20\n        /* \"#utility.yul\":8948:8949   */\n      0x00\n        /* \"#utility.yul\":8938:8956   */\n      keccak256\n        /* \"#utility.yul\":8930:8956   */\n      swap1\n      pop\n        /* \"#utility.yul\":8822:8963   */\n      swap2\n      swap1\n      pop\n      jump\t// out\n        /* \"#utility.yul\":8969:9062   */\n    tag_108:\n        /* \"#utility.yul\":9006:9012   */\n      0x00\n        /* \"#utility.yul\":9053:9055   */\n      0x20\n        /* \"#utility.yul\":9048:9050   */\n      0x1f\n        /* \"#utility.yul\":9041:9046   */\n      dup4\n        /* \"#utility.yul\":9037:9051   */\n      add\n        /* \"#utility.yul\":9033:9056   */\n      div\n        /* \"#utility.yul\":9023:9056   */\n      swap1\n      pop\n        /* \"#utility.yul\":8969:9062   */\n      swap2\n      swap1\n      pop\n      jump\t// out\n        /* \"#utility.yul\":9068:9175   */\n    tag_109:\n        /* \"#utility.yul\":9112:9120   */\n      0x00\n        /* \"#utility.yul\":9162:9167   */\n      dup3\n        /* \"#utility.yul\":9156:9160   */\n      dup3\n        /* \"#utility.yul\":9152:9168   */\n      shl\n        /* \"#utility.yul\":9131:9168   */\n      swap1\n      pop\n        /* \"#utility.yul\":9068:9175   */\n      swap3\n      swap2\n      pop\n      pop\n      jump\t// out\n        /* \"#utility.yul\":9181:9574   */\n    tag_110:\n        /* \"#utility.yul\":9250:9256   */\n      0x00\n        /* \"#utility.yul\":9300:9301   */\n      0x08\n        /* \"#utility.yul\":9288:9298   */\n      dup4\n        /* \"#utility.yul\":9284:9302   */\n      mul\n        /* \"#utility.yul\":9323:9420   */\n      tag_222\n        /* \"#utility.yul\":9353:9419   */\n      0xffffffffffffffffffffffffffffffffffffffffffffffffffffffffffffffff\n        /* \"#utility.yul\":9342:9351   */\n      dup3\n        /* \"#utility.yul\":9323:9420   */\n      tag_109\n      jump\t// in\n    tag_222:\n        /* \"#utility.yul\":9441:9480   */\n      tag_223\n        /* \"#utility.yul\":9471:9479   */\n      dup7\n        /* \"#utility.yul\":9460:9469   */\n      dup4\n        /* \"#utility.yul\":9441:9480   */\n      tag_109\n      jump\t// in\n    tag_223:\n        /* \"#utility.yul\":9429:9480   */\n      swap6\n      pop\n        /* \"#utility.yul\":9513:9517   */\n      dup1\n        /* \"#utility.yul\":9509:9518   */\n      not\n        /* \"#utility.yul\":9502:9507   */\n      dup5\n        /* \"#utility.yul\":9498:9519   */\n      and\n        /* \"#utility.yul\":9489:9519   */\n      swap4\n      pop\n        /* \"#utility.yul\":9562:9566   */\n      dup1\n        /* \"#utility.yul\":9552:9560   */\n      dup7\n        /* \"#utility.yul\":9548:9567   */\n      and\n        /* \"#utility.yul\":9541:9546   */\n      dup5\n        /* \"#utility.yul\":9538:9568   */\n      or\n        /* \"#utility.yul\":9528:9568   */\n      swap3\n      pop\n        /* \"#utility.yul\":9257:9574   */\n      pop\n      pop\n        /* \"#utility.yul\":9181:9574   */\n      swap4\n      swap3\n      pop\n      pop\n      pop\n      jump\t// out\n        /* \"#utility.yul\":9580:9640   */\n    tag_111:\n        /* \"#utility.yul\":9608:9611   */\n      0x00\n        /* \"#utility.yul\":9629:9634   */\n      dup2\n        /* \"#utility.yul\":9622:9634   */\n      swap1\n      pop\n        /* \"#utility.yul\":9580:9640   */\n      swap2\n      swap1\n      pop\n      jump\t// out\n        /* \"#utility.yul\":9646:9788   */\n    tag_112:\n        /* \"#utility.yul\":9696:9705   */\n      0x00\n        /* \"#utility.yul\":9729:9782   */\n      tag_226\n        /* \"#utility.yul\":9747:9781   */\n      tag_227\n        /* \"#utility.yul\":9756:9780   */\n      tag_228\n        /* \"#utility.yul\":9774:9779   */\n      dup5\n        /* \"#utility.yul\":9756:9780   */\n      tag_82\n      jump\t// in\n    tag_228:\n        /* \"#utility.yul\":9747:9781   */\n      tag_111\n      jump\t// in\n    tag_227:\n        /* \"#utility.yul\":9729:9782   */\n      tag_82\n      jump\t// in\n    tag_226:\n        /* \"#utility.yul\":9716:9782   */\n      swap1\n      pop\n        /* \"#utility.yul\":9646:9788   */\n      swap2\n      swap1\n      pop\n      jump\t// out\n        /* \"#utility.yul\":9794:9869   */\n    tag_113:\n        /* \"#utility.yul\":9837:9840   */\n      0x00\n        /* \"#utility.yul\":9858:9863   */\n      dup2\n        /* \"#utility.yul\":9851:9863   */\n      swap1\n      pop\n        /* \"#utility.yul\":9794:9869   */\n      swap2\n      swap1\n      pop\n      jump\t// out\n        /* \"#utility.yul\":9875:10144   */\n    tag_114:\n        /* \"#utility.yul\":9985:10024   */\n      tag_231\n        /* \"#utility.yul\":10016:10023   */\n      dup4\n        /* \"#utility.yul\":9985:10024   */\n      tag_112\n      jump\t// in\n    tag_231:\n        /* \"#utility.yul\":10046:10137   */\n      tag_232\n        /* \"#utility.yul\":10095:10136   */\n      tag_233\n        /* \"#utility.yul\":10119:10135   */\n      dup3\n        /* \"#utility.yul\":10095:10136   */\n      tag_113\n      jump\t// in\n    tag_233:\n        /* \"#utility.yul\":10087:10093   */\n      dup5\n        /* \"#utility.yul\":10080:10084   */\n      dup5\n        /* \"#utility.yul\":10074:10085   */\n      sload\n        /* \"#utility.yul\":10046:10137   */\n      tag_110\n      jump\t// in\n    tag_232:\n        /* \"#utility.yul\":10040:10044   */\n      dup3\n        /* \"#utility.yul\":10033:10138   */\n      sstore\n        /* \"#utility.yul\":9951:10144   */\n      pop\n        /* \"#utility.yul\":9875:10144   */\n      pop\n      pop\n      pop\n      jump\t// out\n        /* \"#utility.yul\":10150:10223   */\n    tag_115:\n        /* \"#utility.yul\":10195:10198   */\n      0x00\n        /* \"#utility.yul\":10150:10223   */\n      swap1\n      jump\t// out\n        /* \"#utility.yul\":10229:10418   */\n    tag_116:\n        /* \"#utility.yul\":10306:10338   */\n      tag_236\n      tag_115\n      jump\t// in\n    tag_236:\n        /* \"#utility.yul\":10347:10412   */\n      tag_237\n        /* \"#utility.yul\":10405:10411   */\n      dup2\n        /* \"#utility.yul\":10397:10403   */\n      dup5\n        /* \"#utility.yul\":10391:10395   */\n      dup5\n        /* \"#utility.yul\":10347:10412   */\n      tag_114\n      jump\t// in\n    tag_237:\n        /* \"#utility.yul\":10282:10418   */\n      pop\n        /* \"#utility.yul\":10229:10418   */\n      pop\n      pop\n      jump\t// out\n        /* \"#utility.yul\":10424:10610   */\n    tag_117:\n        /* \"#utility.yul\":10484:10604   */\n    tag_239:\n        /* \"#utility.yul\":10501:10504   */\n      dup2\n        /* \"#utility.yul\":10494:10499   */\n      dup2\n        /* \"#utility.yul\":10491:10505   */\n      lt\n        /* \"#utility.yul\":10484:10604   */\n      iszero\n      tag_241\n      jumpi\n        /* \"#utility.yul\":10555:10594   */\n      tag_242\n        /* \"#utility.yul\":10592:10593   */\n      0x00\n        /* \"#utility.yul\":10585:10590   */\n      dup3\n        /* \"#utility.yul\":10555:10594   */\n      tag_116\n      jump\t// in\n    tag_242:\n        /* \"#utility.yul\":10528:10529   */\n      0x01\n        /* \"#utility.yul\":10521:10526   */\n      dup2\n        /* \"#utility.yul\":10517:10530   */\n      add\n        /* \"#utility.yul\":10508:10530   */\n      swap1\n      pop\n        /* \"#utility.yul\":10484:10604   */\n      jump(tag_239)\n    tag_241:\n        /* \"#utility.yul\":10424:10610   */\n      pop\n      pop\n      jump\t// out\n        /* \"#utility.yul\":10616:11159   */\n    tag_118:\n        /* \"#utility.yul\":10717:10719   */\n      0x1f\n        /* \"#utility.yul\":10712:10715   */\n      dup3\n        /* \"#utility.yul\":10709:10720   */\n      gt\n        /* \"#utility.yul\":10706:11152   */\n      iszero\n      tag_244\n      jumpi\n        /* \"#utility.yul\":10751:10789   */\n      tag_245\n        /* \"#utility.yul\":10783:10788   */\n      dup2\n        /* \"#utility.yul\":10751:10789   */\n      tag_107\n      jump\t// in\n    tag_245:\n        /* \"#utility.yul\":10835:10864   */\n      tag_246\n        /* \"#utility.yul\":10853:10863   */\n      dup5\n        /* \"#utility.yul\":10835:10864   */\n      tag_108\n      jump\t// in\n    tag_246:\n        /* \"#utility.yul\":10825:10833   */\n      dup2\n        /* \"#utility.yul\":10821:10865   */\n      add\n        /* \"#utility.yul\":11018:11020   */\n      0x20\n        /* \"#utility.yul\":11006:11016   */\n      dup6\n        /* \"#utility.yul\":11003:11021   */\n      lt\n        /* \"#utility.yul\":11000:11049   */\n      iszero\n      tag_247\n      jumpi\n        /* \"#utility.yul\":11039:11047   */\n      dup2\n        /* \"#utility.yul\":11024:11047   */\n      swap1\n      pop\n        /* \"#utility.yul\":11000:11049   */\n    tag_247:\n        /* \"#utility.yul\":11062:11142   */\n      tag_248\n        /* \"#utility.yul\":11118:11140   */\n      tag_249\n        /* \"#utility.yul\":11136:11139   */\n      dup6\n        /* \"#utility.yul\":11118:11140   */\n      tag_108\n      jump\t// in\n    tag_249:\n        /* \"#utility.yul\":11108:11116   */\n      dup4\n        /* \"#utility.yul\":11104:11141   */\n      add\n        /* \"#utility.yul\":11091:11102   */\n      dup3\n        /* \"#utility.yul\":11062:11142   */\n      tag_117\n      jump\t// in\n    tag_248:\n        /* \"#utility.yul\":10721:11152   */\n      pop\n      pop\n        /* \"#utility.yul\":10706:11152   */\n    tag_244:\n        /* \"#utility.yul\":10616:11159   */\n      pop\n      pop\n      pop\n      jump\t// out\n        /* \"#utility.yul\":11165:11282   */\n    tag_119:\n        /* \"#utility.yul\":11219:11227   */\n      0x00\n        /* \"#utility.yul\":11269:11274   */\n      dup3\n        /* \"#utility.yul\":11263:11267   */\n      dup3\n        /* \"#utility.yul\":11259:11275   */\n      shr\n        /* \"#utility.yul\":11238:11275   */\n      swap1\n      pop\n        /* \"#utility.yul\":11165:11282   */\n      swap3\n      swap2\n      pop\n      pop\n      jump\t// out\n        /* \"#utility.yul\":11288:11457   */\n    tag_120:\n        /* \"#utility.yul\":11332:11338   */\n      0x00\n        /* \"#utility.yul\":11365:11416   */\n      tag_252\n        /* \"#utility.yul\":11413:11414   */\n      0x00\n        /* \"#utility.yul\":11409:11415   */\n      not\n        /* \"#utility.yul\":11401:11406   */\n      dup5\n        /* \"#utility.yul\":11398:11399   */\n      0x08\n        /* \"#utility.yul\":11394:11407   */\n      mul\n        /* \"#utility.yul\":11365:11416   */\n      tag_119\n      jump\t// in\n    tag_252:\n        /* \"#utility.yul\":11361:11417   */\n      not\n        /* \"#utility.yul\":11446:11450   */\n      dup1\n        /* \"#utility.yul\":11440:11444   */\n      dup4\n        /* \"#utility.yul\":11436:11451   */\n      and\n        /* \"#utility.yul\":11426:11451   */\n      swap2\n      pop\n        /* \"#utility.yul\":11339:11457   */\n      pop\n        /* \"#utility.yul\":11288:11457   */\n      swap3\n      swap2\n      pop\n      pop\n      jump\t// out\n        /* \"#utility.yul\":11462:11757   */\n    tag_121:\n        /* \"#utility.yul\":11538:11542   */\n      0x00\n        /* \"#utility.yul\":11684:11713   */\n      tag_254\n        /* \"#utility.yul\":11709:11712   */\n      dup4\n        /* \"#utility.yul\":11703:11707   */\n      dup4\n        /* \"#utility.yul\":11684:11713   */\n      tag_120\n      jump\t// in\n    tag_254:\n        /* \"#utility.yul\":11676:11713   */\n      swap2\n      pop\n        /* \"#utility.yul\":11746:11749   */\n      dup3\n        /* \"#utility.yul\":11743:11744   */\n      0x02\n        /* \"#utility.yul\":11739:11750   */\n      mul\n        /* \"#utility.yul\":11733:11737   */\n      dup3\n        /* \"#utility.yul\":11730:11751   */\n      or\n        /* \"#utility.yul\":11722:11751   */\n      swap1\n      pop\n        /* \"#utility.yul\":11462:11757   */\n      swap3\n      swap2\n      pop\n      pop\n      jump\t// out\n        /* \"#utility.yul\":11762:13157   */\n    tag_60:\n        /* \"#utility.yul\":11879:11916   */\n      tag_256\n        /* \"#utility.yul\":11912:11915   */\n      dup3\n        /* \"#utility.yul\":11879:11916   */\n      tag_85\n      jump\t// in\n    tag_256:\n        /* \"#utility.yul\":11981:11999   */\n      0xffffffffffffffff\n        /* \"#utility.yul\":11973:11979   */\n      dup2\n        /* \"#utility.yul\":11970:12000   */\n      gt\n        /* \"#utility.yul\":11967:12023   */\n      iszero\n      tag_257\n      jumpi\n        /* \"#utility.yul\":12003:12021   */\n      tag_258\n      tag_97\n      jump\t// in\n    tag_258:\n        /* \"#utility.yul\":11967:12023   */\n    tag_257:\n        /* \"#utility.yul\":12047:12085   */\n      tag_259\n        /* \"#utility.yul\":12079:12083   */\n      dup3\n        /* \"#utility.yul\":12073:12084   */\n      sload\n        /* \"#utility.yul\":12047:12085   */\n      tag_42\n      jump\t// in\n    tag_259:\n        /* \"#utility.yul\":12132:12199   */\n      tag_260\n        /* \"#utility.yul\":12192:12198   */\n      dup3\n        /* \"#utility.yul\":12184:12190   */\n      dup3\n        /* \"#utility.yul\":12178:12182   */\n      dup6\n        /* \"#utility.yul\":12132:12199   */\n      tag_118\n      jump\t// in\n    tag_260:\n        /* \"#utility.yul\":12226:12227   */\n      0x00\n        /* \"#utility.yul\":12250:12254   */\n      0x20\n        /* \"#utility.yul\":12237:12254   */\n      swap1\n      pop\n        /* \"#utility.yul\":12282:12284   */\n      0x1f\n        /* \"#utility.yul\":12274:12280   */\n      dup4\n        /* \"#utility.yul\":12271:12285   */\n      gt\n        /* \"#utility.yul\":12299:12300   */\n      0x01\n        /* \"#utility.yul\":12294:12912   */\n      dup2\n      eq\n      tag_262\n      jumpi\n        /* \"#utility.yul\":12956:12957   */\n      0x00\n        /* \"#utility.yul\":12973:12979   */\n      dup5\n        /* \"#utility.yul\":12970:13047   */\n      iszero\n      tag_263\n      jumpi\n        /* \"#utility.yul\":13022:13031   */\n      dup3\n        /* \"#utility.yul\":13017:13020   */\n      dup8\n        /* \"#utility.yul\":13013:13032   */\n      add\n        /* \"#utility.yul\":13007:13033   */\n      mload\n        /* \"#utility.yul\":12998:13033   */\n      swap1\n      pop\n        /* \"#utility.yul\":12970:13047   */\n    tag_263:\n        /* \"#utility.yul\":13073:13140   */\n      tag_264\n        /* \"#utility.yul\":13133:13139   */\n      dup6\n        /* \"#utility.yul\":13126:13131   */\n      dup3\n        /* \"#utility.yul\":13073:13140   */\n      tag_121\n      jump\t// in\n    tag_264:\n        /* \"#utility.yul\":13067:13071   */\n      dup7\n        /* \"#utility.yul\":13060:13141   */\n      sstore\n        /* \"#utility.yul\":12929:13151   */\n      pop\n        /* \"#utility.yul\":12264:13151   */\n      jump(tag_261)\n        /* \"#utility.yul\":12294:12912   */\n    tag_262:\n        /* \"#utility.yul\":12346:12350   */\n      0x1f\n        /* \"#utility.yul\":12342:12351   */\n      not\n        /* \"#utility.yul\":12334:12340   */\n      dup5\n        /* \"#utility.yul\":12330:12352   */\n      and\n        /* \"#utility.yul\":12380:12417   */\n      tag_265\n        /* \"#utility.yul\":12412:12416   */\n      dup7\n        /* \"#utility.yul\":12380:12417   */\n      tag_107\n      jump\t// in\n    tag_265:\n        /* \"#utility.yul\":12439:12440   */\n      0x00\n        /* \"#utility.yul\":12453:12661   */\n    tag_266:\n        /* \"#utility.yul\":12467:12474   */\n      dup3\n        /* \"#utility.yul\":12464:12465   */\n      dup2\n        /* \"#utility.yul\":12461:12475   */\n      lt\n        /* \"#utility.yul\":12453:12661   */\n      iszero\n      tag_268\n      jumpi\n        /* \"#utility.yul\":12546:12555   */\n      dup5\n        /* \"#utility.yul\":12541:12544   */\n      dup10\n        /* \"#utility.yul\":12537:12556   */\n      add\n        /* \"#utility.yul\":12531:12557   */\n      mload\n        /* \"#utility.yul\":12523:12529   */\n      dup3\n        /* \"#utility.yul\":12516:12558   */\n      sstore\n        /* \"#utility.yul\":12597:12598   */\n      0x01\n        /* \"#utility.yul\":12589:12595   */\n      dup3\n        /* \"#utility.yul\":12585:12599   */\n      add\n        /* \"#utility.yul\":12575:12599   */\n      swap2\n      pop\n        /* \"#utility.yul\":12644:12646   */\n      0x20\n        /* \"#utility.yul\":12633:12642   */\n      dup6\n        /* \"#utility.yul\":12629:12647   */\n      add\n        /* \"#utility.yul\":12616:12647   */\n      swap5\n      pop\n        /* \"#utility.yul\":12490:12494   */\n      0x20\n        /* \"#utility.yul\":12487:12488   */\n      dup2\n        /* \"#utility.yul\":12483:12495   */\n      add\n        /* \"#utility.yul\":12478:12495   */\n      swap1\n      pop\n        /* \"#utility.yul\":12453:12661   */\n      jump(tag_266)\n    tag_268:\n        /* \"#utility.yul\":12689:12695   */\n      dup7\n        /* \"#utility.yul\":12680:12687   */\n      dup4\n        /* \"#utility.yul\":12677:12696   */\n      lt\n        /* \"#utility.yul\":12674:12853   */\n      iszero\n      tag_269\n      jumpi\n        /* \"#utility.yul\":12747:12756   */\n      dup5\n        /* \"#utility.yul\":12742:12745   */\n      dup10\n        /* \"#utility.yul\":12738:12757   */\n      add\n        /* \"#utility.yul\":12732:12758   */\n      mload\n        /* \"#utility.yul\":12790:12838   */\n      tag_270\n        /* \"#utility.yul\":12832:12836   */\n      0x1f\n        /* \"#utility.yul\":12824:12830   */\n      dup10\n        /* \"#utility.yul\":12820:12837   */\n      and\n        /* \"#utility.yul\":12809:12818   */\n      dup3\n        /* \"#utility.yul\":12790:12838   */\n      tag_120\n      jump\t// in\n    tag_270:\n        /* \"#utility.yul\":12782:12788   */\n      dup4\n        /* \"#utility.yul\":12775:12839   */\n      sstore\n        /* \"#utility.yul\":12697:12853   */\n      pop\n        /* \"#utility.yul\":12674:12853   */\n    tag_269:\n        /* \"#utility.yul\":12899:12900   */\n      0x01\n        /* \"#utility.yul\":12895:12896   */\n      0x02\n        /* \"#utility.yul\":12887:12893   */\n      dup9\n        /* \"#utility.yul\":12883:12897   */\n      mul\n        /* \"#utility.yul\":12879:12901   */\n      add\n        /* \"#utility.yul\":12873:12877   */\n      dup9\n        /* \"#utility.yul\":12866:12902   */\n      sstore\n        /* \"#utility.yul\":12301:12912   */\n      pop\n      pop\n      pop\n        /* \"#utility.yul\":12264:13151   */\n    tag_261:\n      pop\n        /* \"#utility.yul\":11854:13157   */\n      pop\n      pop\n      pop\n        /* \"#utility.yul\":11762:13157   */\n      pop\n      pop\n      jump\t// out\n\n    auxdata: 0xa26469706673582212202df5a2de15d24e0abc356b7468e81c90e6f6bbd683fd54d61ecdf86417ffa1b764736f6c63430008100033\n}\n",
				"bytecode": {
					"linkReferences": {},
					"object": "60806040523480156200001157600080fd5b506040518060400160405280601d81526020017f50726f6772616d204d616465206279204d7568616d6d6164205461686100000081525060009081620000589190620002d9565b50620003c0565b600081519050919050565b7f4e487b7100000000000000000000000000000000000000000000000000000000600052604160045260246000fd5b7f4e487b7100000000000000000000000000000000000000000000000000000000600052602260045260246000fd5b60006002820490506001821680620000e157607f821691505b602082108103620000f757620000f662000099565b5b50919050565b60008190508160005260206000209050919050565b60006020601f8301049050919050565b600082821b905092915050565b600060088302620001617fffffffffffffffffffffffffffffffffffffffffffffffffffffffffffffffff8262000122565b6200016d868362000122565b95508019841693508086168417925050509392505050565b6000819050919050565b6000819050919050565b6000620001ba620001b4620001ae8462000185565b6200018f565b62000185565b9050919050565b6000819050919050565b620001d68362000199565b620001ee620001e582620001c1565b8484546200012f565b825550505050565b600090565b62000205620001f6565b62000212818484620001cb565b505050565b5b818110156200023a576200022e600082620001fb565b60018101905062000218565b5050565b601f82111562000289576200025381620000fd565b6200025e8462000112565b810160208510156200026e578190505b620002866200027d8562000112565b83018262000217565b50505b505050565b600082821c905092915050565b6000620002ae600019846008026200028e565b1980831691505092915050565b6000620002c983836200029b565b9150826002028217905092915050565b620002e4826200005f565b67ffffffffffffffff8111156200030057620002ff6200006a565b5b6200030c8254620000c8565b620003198282856200023e565b600060209050601f8311600181146200035157600084156200033c578287015190505b620003488582620002bb565b865550620003b8565b601f1984166200036186620000fd565b60005b828110156200038b5784890151825560018201915060208501945060208101905062000364565b86831015620003ab5784890151620003a7601f8916826200029b565b8355505b6001600288020188555050505b505050505050565b610d0880620003d06000396000f3fe608060405234801561001057600080fd5b50600436106100625760003560e01c80631d65e77e14610067578063387008c214610097578063560f3192146100b357806367238562146100cf57806386533f6c146100eb578063fbbf93a014610107575b600080fd5b610081600480360381019061007c91906105dc565b610125565b60405161008e91906106f1565b60405180910390f35b6100b160048036038101906100ac919061073f565b61024b565b005b6100cd60048036038101906100c891906105dc565b6102c9565b005b6100e960048036038101906100e491906108b4565b610352565b005b610105600480360381019061010091906108fd565b610413565b005b61010f610487565b60405161011c91906109a3565b60405180910390f35b61012d610519565b600160003373ffffffffffffffffffffffffffffffffffffffff1673ffffffffffffffffffffffffffffffffffffffff168152602001908152602001600020828154811061017e5761017d6109c5565b5b90600052602060002090600202016040518060400160405290816000820180546101a790610a23565b80601f01602080910402602001604051908101604052809291908181526020018280546101d390610a23565b80156102205780601f106101f557610100808354040283529160200191610220565b820191906000526020600020905b81548152906001019060200180831161020357829003601f168201915b505050505081526020016001820160009054906101000a900460ff1615151515815250509050919050565b80600160003373ffffffffffffffffffffffffffffffffffffffff1673ffffffffffffffffffffffffffffffffffffffff168152602001908152602001600020838154811061029d5761029c6109c5565b5b906000526020600020906002020160010160006101000a81548160ff0219169083151502179055505050565b600160003373ffffffffffffffffffffffffffffffffffffffff1673ffffffffffffffffffffffffffffffffffffffff168152602001908152602001600020818154811061031a576103196109c5565b5b9060005260206000209060020201600080820160006103399190610535565b6001820160006101000a81549060ff0219169055505050565b60006040518060400160405280838152602001600015158152509050600160003373ffffffffffffffffffffffffffffffffffffffff1673ffffffffffffffffffffffffffffffffffffffff16815260200190815260200160002081908060018154018082558091505060019003906000526020600020906002020160009091909190915060008201518160000190816103ec9190610c00565b5060208201518160010160006101000a81548160ff02191690831515021790555050505050565b80600160003373ffffffffffffffffffffffffffffffffffffffff1673ffffffffffffffffffffffffffffffffffffffff1681526020019081526020016000208381548110610465576104646109c5565b5b906000526020600020906002020160000190816104829190610c00565b505050565b60606000805461049690610a23565b80601f01602080910402602001604051908101604052809291908181526020018280546104c290610a23565b801561050f5780601f106104e45761010080835404028352916020019161050f565b820191906000526020600020905b8154815290600101906020018083116104f257829003601f168201915b5050505050905090565b6040518060400160405280606081526020016000151581525090565b50805461054190610a23565b6000825580601f106105535750610572565b601f0160209004906000526020600020908101906105719190610575565b5b50565b5b8082111561058e576000816000905550600101610576565b5090565b6000604051905090565b600080fd5b600080fd5b6000819050919050565b6105b9816105a6565b81146105c457600080fd5b50565b6000813590506105d6816105b0565b92915050565b6000602082840312156105f2576105f161059c565b5b6000610600848285016105c7565b91505092915050565b600081519050919050565b600082825260208201905092915050565b60005b83811015610643578082015181840152602081019050610628565b60008484015250505050565b6000601f19601f8301169050919050565b600061066b82610609565b6106758185610614565b9350610685818560208601610625565b61068e8161064f565b840191505092915050565b60008115159050919050565b6106ae81610699565b82525050565b600060408301600083015184820360008601526106d18282610660565b91505060208301516106e660208601826106a5565b508091505092915050565b6000602082019050818103600083015261070b81846106b4565b905092915050565b61071c81610699565b811461072757600080fd5b50565b60008135905061073981610713565b92915050565b600080604083850312156107565761075561059c565b5b6000610764858286016105c7565b92505060206107758582860161072a565b9150509250929050565b600080fd5b600080fd5b7f4e487b7100000000000000000000000000000000000000000000000000000000600052604160045260246000fd5b6107c18261064f565b810181811067ffffffffffffffff821117156107e0576107df610789565b5b80604052505050565b60006107f3610592565b90506107ff82826107b8565b919050565b600067ffffffffffffffff82111561081f5761081e610789565b5b6108288261064f565b9050602081019050919050565b82818337600083830152505050565b600061085761085284610804565b6107e9565b90508281526020810184848401111561087357610872610784565b5b61087e848285610835565b509392505050565b600082601f83011261089b5761089a61077f565b5b81356108ab848260208601610844565b91505092915050565b6000602082840312156108ca576108c961059c565b5b600082013567ffffffffffffffff8111156108e8576108e76105a1565b5b6108f484828501610886565b91505092915050565b600080604083850312156109145761091361059c565b5b6000610922858286016105c7565b925050602083013567ffffffffffffffff811115610943576109426105a1565b5b61094f85828601610886565b9150509250929050565b600082825260208201905092915050565b600061097582610609565b61097f8185610959565b935061098f818560208601610625565b6109988161064f565b840191505092915050565b600060208201905081810360008301526109bd818461096a565b905092915050565b7f4e487b7100000000000000000000000000000000000000000000000000000000600052603260045260246000fd5b7f4e487b7100000000000000000000000000000000000000000000000000000000600052602260045260246000fd5b60006002820490506001821680610a3b57607f821691505b602082108103610a4e57610a4d6109f4565b5b50919050565b60008190508160005260206000209050919050565b60006020601f8301049050919050565b600082821b905092915050565b600060088302610ab67fffffffffffffffffffffffffffffffffffffffffffffffffffffffffffffffff82610a79565b610ac08683610a79565b95508019841693508086168417925050509392505050565b6000819050919050565b6000610afd610af8610af3846105a6565b610ad8565b6105a6565b9050919050565b6000819050919050565b610b1783610ae2565b610b2b610b2382610b04565b848454610a86565b825550505050565b600090565b610b40610b33565b610b4b818484610b0e565b505050565b5b81811015610b6f57610b64600082610b38565b600181019050610b51565b5050565b601f821115610bb457610b8581610a54565b610b8e84610a69565b81016020851015610b9d578190505b610bb1610ba985610a69565b830182610b50565b50505b505050565b600082821c905092915050565b6000610bd760001984600802610bb9565b1980831691505092915050565b6000610bf08383610bc6565b9150826002028217905092915050565b610c0982610609565b67ffffffffffffffff811115610c2257610c21610789565b5b610c2c8254610a23565b610c37828285610b73565b600060209050601f831160018114610c6a5760008415610c58578287015190505b610c628582610be4565b865550610cca565b601f198416610c7886610a54565b60005b82811015610ca057848901518255600182019150602085019450602081019050610c7b565b86831015610cbd5784890151610cb9601f891682610bc6565b8355505b6001600288020188555050505b50505050505056fea26469706673582212202df5a2de15d24e0abc356b7468e81c90e6f6bbd683fd54d61ecdf86417ffa1b764736f6c63430008100033",
					"opcodes": "PUSH1 0x80 PUSH1 0x40 MSTORE CALLVALUE DUP1 ISZERO PUSH3 0x11 JUMPI PUSH1 0x0 DUP1 REVERT JUMPDEST POP PUSH1 0x40 MLOAD DUP1 PUSH1 0x40 ADD PUSH1 0x40 MSTORE DUP1 PUSH1 0x1D DUP2 MSTORE PUSH1 0x20 ADD PUSH32 0x50726F6772616D204D616465206279204D7568616D6D61642054616861000000 DUP2 MSTORE POP PUSH1 0x0 SWAP1 DUP2 PUSH3 0x58 SWAP2 SWAP1 PUSH3 0x2D9 JUMP JUMPDEST POP PUSH3 0x3C0 JUMP JUMPDEST PUSH1 0x0 DUP2 MLOAD SWAP1 POP SWAP2 SWAP1 POP JUMP JUMPDEST PUSH32 0x4E487B7100000000000000000000000000000000000000000000000000000000 PUSH1 0x0 MSTORE PUSH1 0x41 PUSH1 0x4 MSTORE PUSH1 0x24 PUSH1 0x0 REVERT JUMPDEST PUSH32 0x4E487B7100000000000000000000000000000000000000000000000000000000 PUSH1 0x0 MSTORE PUSH1 0x22 PUSH1 0x4 MSTORE PUSH1 0x24 PUSH1 0x0 REVERT JUMPDEST PUSH1 0x0 PUSH1 0x2 DUP3 DIV SWAP1 POP PUSH1 0x1 DUP3 AND DUP1 PUSH3 0xE1 JUMPI PUSH1 0x7F DUP3 AND SWAP2 POP JUMPDEST PUSH1 0x20 DUP3 LT DUP2 SUB PUSH3 0xF7 JUMPI PUSH3 0xF6 PUSH3 0x99 JUMP JUMPDEST JUMPDEST POP SWAP2 SWAP1 POP JUMP JUMPDEST PUSH1 0x0 DUP2 SWAP1 POP DUP2 PUSH1 0x0 MSTORE PUSH1 0x20 PUSH1 0x0 KECCAK256 SWAP1 POP SWAP2 SWAP1 POP JUMP JUMPDEST PUSH1 0x0 PUSH1 0x20 PUSH1 0x1F DUP4 ADD DIV SWAP1 POP SWAP2 SWAP1 POP JUMP JUMPDEST PUSH1 0x0 DUP3 DUP3 SHL SWAP1 POP SWAP3 SWAP2 POP POP JUMP JUMPDEST PUSH1 0x0 PUSH1 0x8 DUP4 MUL PUSH3 0x161 PUSH32 0xFFFFFFFFFFFFFFFFFFFFFFFFFFFFFFFFFFFFFFFFFFFFFFFFFFFFFFFFFFFFFFFF DUP3 PUSH3 0x122 JUMP JUMPDEST PUSH3 0x16D DUP7 DUP4 PUSH3 0x122 JUMP JUMPDEST SWAP6 POP DUP1 NOT DUP5 AND SWAP4 POP DUP1 DUP7 AND DUP5 OR SWAP3 POP POP POP SWAP4 SWAP3 POP POP POP JUMP JUMPDEST PUSH1 0x0 DUP2 SWAP1 POP SWAP2 SWAP1 POP JUMP JUMPDEST PUSH1 0x0 DUP2 SWAP1 POP SWAP2 SWAP1 POP JUMP JUMPDEST PUSH1 0x0 PUSH3 0x1BA PUSH3 0x1B4 PUSH3 0x1AE DUP5 PUSH3 0x185 JUMP JUMPDEST PUSH3 0x18F JUMP JUMPDEST PUSH3 0x185 JUMP JUMPDEST SWAP1 POP SWAP2 SWAP1 POP JUMP JUMPDEST PUSH1 0x0 DUP2 SWAP1 POP SWAP2 SWAP1 POP JUMP JUMPDEST PUSH3 0x1D6 DUP4 PUSH3 0x199 JUMP JUMPDEST PUSH3 0x1EE PUSH3 0x1E5 DUP3 PUSH3 0x1C1 JUMP JUMPDEST DUP5 DUP5 SLOAD PUSH3 0x12F JUMP JUMPDEST DUP3 SSTORE POP POP POP POP JUMP JUMPDEST PUSH1 0x0 SWAP1 JUMP JUMPDEST PUSH3 0x205 PUSH3 0x1F6 JUMP JUMPDEST PUSH3 0x212 DUP2 DUP5 DUP5 PUSH3 0x1CB JUMP JUMPDEST POP POP POP JUMP JUMPDEST JUMPDEST DUP2 DUP2 LT ISZERO PUSH3 0x23A JUMPI PUSH3 0x22E PUSH1 0x0 DUP3 PUSH3 0x1FB JUMP JUMPDEST PUSH1 0x1 DUP2 ADD SWAP1 POP PUSH3 0x218 JUMP JUMPDEST POP POP JUMP JUMPDEST PUSH1 0x1F DUP3 GT ISZERO PUSH3 0x289 JUMPI PUSH3 0x253 DUP2 PUSH3 0xFD JUMP JUMPDEST PUSH3 0x25E DUP5 PUSH3 0x112 JUMP JUMPDEST DUP2 ADD PUSH1 0x20 DUP6 LT ISZERO PUSH3 0x26E JUMPI DUP2 SWAP1 POP JUMPDEST PUSH3 0x286 PUSH3 0x27D DUP6 PUSH3 0x112 JUMP JUMPDEST DUP4 ADD DUP3 PUSH3 0x217 JUMP JUMPDEST POP POP JUMPDEST POP POP POP JUMP JUMPDEST PUSH1 0x0 DUP3 DUP3 SHR SWAP1 POP SWAP3 SWAP2 POP POP JUMP JUMPDEST PUSH1 0x0 PUSH3 0x2AE PUSH1 0x0 NOT DUP5 PUSH1 0x8 MUL PUSH3 0x28E JUMP JUMPDEST NOT DUP1 DUP4 AND SWAP2 POP POP SWAP3 SWAP2 POP POP JUMP JUMPDEST PUSH1 0x0 PUSH3 0x2C9 DUP4 DUP4 PUSH3 0x29B JUMP JUMPDEST SWAP2 POP DUP3 PUSH1 0x2 MUL DUP3 OR SWAP1 POP SWAP3 SWAP2 POP POP JUMP JUMPDEST PUSH3 0x2E4 DUP3 PUSH3 0x5F JUMP JUMPDEST PUSH8 0xFFFFFFFFFFFFFFFF DUP2 GT ISZERO PUSH3 0x300 JUMPI PUSH3 0x2FF PUSH3 0x6A JUMP JUMPDEST JUMPDEST PUSH3 0x30C DUP3 SLOAD PUSH3 0xC8 JUMP JUMPDEST PUSH3 0x319 DUP3 DUP3 DUP6 PUSH3 0x23E JUMP JUMPDEST PUSH1 0x0 PUSH1 0x20 SWAP1 POP PUSH1 0x1F DUP4 GT PUSH1 0x1 DUP2 EQ PUSH3 0x351 JUMPI PUSH1 0x0 DUP5 ISZERO PUSH3 0x33C JUMPI DUP3 DUP8 ADD MLOAD SWAP1 POP JUMPDEST PUSH3 0x348 DUP6 DUP3 PUSH3 0x2BB JUMP JUMPDEST DUP7 SSTORE POP PUSH3 0x3B8 JUMP JUMPDEST PUSH1 0x1F NOT DUP5 AND PUSH3 0x361 DUP7 PUSH3 0xFD JUMP JUMPDEST PUSH1 0x0 JUMPDEST DUP3 DUP2 LT ISZERO PUSH3 0x38B JUMPI DUP5 DUP10 ADD MLOAD DUP3 SSTORE PUSH1 0x1 DUP3 ADD SWAP2 POP PUSH1 0x20 DUP6 ADD SWAP5 POP PUSH1 0x20 DUP2 ADD SWAP1 POP PUSH3 0x364 JUMP JUMPDEST DUP7 DUP4 LT ISZERO PUSH3 0x3AB JUMPI DUP5 DUP10 ADD MLOAD PUSH3 0x3A7 PUSH1 0x1F DUP10 AND DUP3 PUSH3 0x29B JUMP JUMPDEST DUP4 SSTORE POP JUMPDEST PUSH1 0x1 PUSH1 0x2 DUP9 MUL ADD DUP9 SSTORE POP POP POP JUMPDEST POP POP POP POP POP POP JUMP JUMPDEST PUSH2 0xD08 DUP1 PUSH3 0x3D0 PUSH1 0x0 CODECOPY PUSH1 0x0 RETURN INVALID PUSH1 0x80 PUSH1 0x40 MSTORE CALLVALUE DUP1 ISZERO PUSH2 0x10 JUMPI PUSH1 0x0 DUP1 REVERT JUMPDEST POP PUSH1 0x4 CALLDATASIZE LT PUSH2 0x62 JUMPI PUSH1 0x0 CALLDATALOAD PUSH1 0xE0 SHR DUP1 PUSH4 0x1D65E77E EQ PUSH2 0x67 JUMPI DUP1 PUSH4 0x387008C2 EQ PUSH2 0x97 JUMPI DUP1 PUSH4 0x560F3192 EQ PUSH2 0xB3 JUMPI DUP1 PUSH4 0x67238562 EQ PUSH2 0xCF JUMPI DUP1 PUSH4 0x86533F6C EQ PUSH2 0xEB JUMPI DUP1 PUSH4 0xFBBF93A0 EQ PUSH2 0x107 JUMPI JUMPDEST PUSH1 0x0 DUP1 REVERT JUMPDEST PUSH2 0x81 PUSH1 0x4 DUP1 CALLDATASIZE SUB DUP2 ADD SWAP1 PUSH2 0x7C SWAP2 SWAP1 PUSH2 0x5DC JUMP JUMPDEST PUSH2 0x125 JUMP JUMPDEST PUSH1 0x40 MLOAD PUSH2 0x8E SWAP2 SWAP1 PUSH2 0x6F1 JUMP JUMPDEST PUSH1 0x40 MLOAD DUP1 SWAP2 SUB SWAP1 RETURN JUMPDEST PUSH2 0xB1 PUSH1 0x4 DUP1 CALLDATASIZE SUB DUP2 ADD SWAP1 PUSH2 0xAC SWAP2 SWAP1 PUSH2 0x73F JUMP JUMPDEST PUSH2 0x24B JUMP JUMPDEST STOP JUMPDEST PUSH2 0xCD PUSH1 0x4 DUP1 CALLDATASIZE SUB DUP2 ADD SWAP1 PUSH2 0xC8 SWAP2 SWAP1 PUSH2 0x5DC JUMP JUMPDEST PUSH2 0x2C9 JUMP JUMPDEST STOP JUMPDEST PUSH2 0xE9 PUSH1 0x4 DUP1 CALLDATASIZE SUB DUP2 ADD SWAP1 PUSH2 0xE4 SWAP2 SWAP1 PUSH2 0x8B4 JUMP JUMPDEST PUSH2 0x352 JUMP JUMPDEST STOP JUMPDEST PUSH2 0x105 PUSH1 0x4 DUP1 CALLDATASIZE SUB DUP2 ADD SWAP1 PUSH2 0x100 SWAP2 SWAP1 PUSH2 0x8FD JUMP JUMPDEST PUSH2 0x413 JUMP JUMPDEST STOP JUMPDEST PUSH2 0x10F PUSH2 0x487 JUMP JUMPDEST PUSH1 0x40 MLOAD PUSH2 0x11C SWAP2 SWAP1 PUSH2 0x9A3 JUMP JUMPDEST PUSH1 0x40 MLOAD DUP1 SWAP2 SUB SWAP1 RETURN JUMPDEST PUSH2 0x12D PUSH2 0x519 JUMP JUMPDEST PUSH1 0x1 PUSH1 0x0 CALLER PUSH20 0xFFFFFFFFFFFFFFFFFFFFFFFFFFFFFFFFFFFFFFFF AND PUSH20 0xFFFFFFFFFFFFFFFFFFFFFFFFFFFFFFFFFFFFFFFF AND DUP2 MSTORE PUSH1 0x20 ADD SWAP1 DUP2 MSTORE PUSH1 0x20 ADD PUSH1 0x0 KECCAK256 DUP3 DUP2 SLOAD DUP2 LT PUSH2 0x17E JUMPI PUSH2 0x17D PUSH2 0x9C5 JUMP JUMPDEST JUMPDEST SWAP1 PUSH1 0x0 MSTORE PUSH1 0x20 PUSH1 0x0 KECCAK256 SWAP1 PUSH1 0x2 MUL ADD PUSH1 0x40 MLOAD DUP1 PUSH1 0x40 ADD PUSH1 0x40 MSTORE SWAP1 DUP2 PUSH1 0x0 DUP3 ADD DUP1 SLOAD PUSH2 0x1A7 SWAP1 PUSH2 0xA23 JUMP JUMPDEST DUP1 PUSH1 0x1F ADD PUSH1 0x20 DUP1 SWAP2 DIV MUL PUSH1 0x20 ADD PUSH1 0x40 MLOAD SWAP1 DUP2 ADD PUSH1 0x40 MSTORE DUP1 SWAP3 SWAP2 SWAP1 DUP2 DUP2 MSTORE PUSH1 0x20 ADD DUP3 DUP1 SLOAD PUSH2 0x1D3 SWAP1 PUSH2 0xA23 JUMP JUMPDEST DUP1 ISZERO PUSH2 0x220 JUMPI DUP1 PUSH1 0x1F LT PUSH2 0x1F5 JUMPI PUSH2 0x100 DUP1 DUP4 SLOAD DIV MUL DUP4 MSTORE SWAP2 PUSH1 0x20 ADD SWAP2 PUSH2 0x220 JUMP JUMPDEST DUP3 ADD SWAP2 SWAP1 PUSH1 0x0 MSTORE PUSH1 0x20 PUSH1 0x0 KECCAK256 SWAP1 JUMPDEST DUP2 SLOAD DUP2 MSTORE SWAP1 PUSH1 0x1 ADD SWAP1 PUSH1 0x20 ADD DUP1 DUP4 GT PUSH2 0x203 JUMPI DUP3 SWAP1 SUB PUSH1 0x1F AND DUP3 ADD SWAP2 JUMPDEST POP POP POP POP POP DUP2 MSTORE PUSH1 0x20 ADD PUSH1 0x1 DUP3 ADD PUSH1 0x0 SWAP1 SLOAD SWAP1 PUSH2 0x100 EXP SWAP1 DIV PUSH1 0xFF AND ISZERO ISZERO ISZERO ISZERO DUP2 MSTORE POP POP SWAP1 POP SWAP2 SWAP1 POP JUMP JUMPDEST DUP1 PUSH1 0x1 PUSH1 0x0 CALLER PUSH20 0xFFFFFFFFFFFFFFFFFFFFFFFFFFFFFFFFFFFFFFFF AND PUSH20 0xFFFFFFFFFFFFFFFFFFFFFFFFFFFFFFFFFFFFFFFF AND DUP2 MSTORE PUSH1 0x20 ADD SWAP1 DUP2 MSTORE PUSH1 0x20 ADD PUSH1 0x0 KECCAK256 DUP4 DUP2 SLOAD DUP2 LT PUSH2 0x29D JUMPI PUSH2 0x29C PUSH2 0x9C5 JUMP JUMPDEST JUMPDEST SWAP1 PUSH1 0x0 MSTORE PUSH1 0x20 PUSH1 0x0 KECCAK256 SWAP1 PUSH1 0x2 MUL ADD PUSH1 0x1 ADD PUSH1 0x0 PUSH2 0x100 EXP DUP2 SLOAD DUP2 PUSH1 0xFF MUL NOT AND SWAP1 DUP4 ISZERO ISZERO MUL OR SWAP1 SSTORE POP POP POP JUMP JUMPDEST PUSH1 0x1 PUSH1 0x0 CALLER PUSH20 0xFFFFFFFFFFFFFFFFFFFFFFFFFFFFFFFFFFFFFFFF AND PUSH20 0xFFFFFFFFFFFFFFFFFFFFFFFFFFFFFFFFFFFFFFFF AND DUP2 MSTORE PUSH1 0x20 ADD SWAP1 DUP2 MSTORE PUSH1 0x20 ADD PUSH1 0x0 KECCAK256 DUP2 DUP2 SLOAD DUP2 LT PUSH2 0x31A JUMPI PUSH2 0x319 PUSH2 0x9C5 JUMP JUMPDEST JUMPDEST SWAP1 PUSH1 0x0 MSTORE PUSH1 0x20 PUSH1 0x0 KECCAK256 SWAP1 PUSH1 0x2 MUL ADD PUSH1 0x0 DUP1 DUP3 ADD PUSH1 0x0 PUSH2 0x339 SWAP2 SWAP1 PUSH2 0x535 JUMP JUMPDEST PUSH1 0x1 DUP3 ADD PUSH1 0x0 PUSH2 0x100 EXP DUP2 SLOAD SWAP1 PUSH1 0xFF MUL NOT AND SWAP1 SSTORE POP POP POP JUMP JUMPDEST PUSH1 0x0 PUSH1 0x40 MLOAD DUP1 PUSH1 0x40 ADD PUSH1 0x40 MSTORE DUP1 DUP4 DUP2 MSTORE PUSH1 0x20 ADD PUSH1 0x0 ISZERO ISZERO DUP2 MSTORE POP SWAP1 POP PUSH1 0x1 PUSH1 0x0 CALLER PUSH20 0xFFFFFFFFFFFFFFFFFFFFFFFFFFFFFFFFFFFFFFFF AND PUSH20 0xFFFFFFFFFFFFFFFFFFFFFFFFFFFFFFFFFFFFFFFF AND DUP2 MSTORE PUSH1 0x20 ADD SWAP1 DUP2 MSTORE PUSH1 0x20 ADD PUSH1 0x0 KECCAK256 DUP2 SWAP1 DUP1 PUSH1 0x1 DUP2 SLOAD ADD DUP1 DUP3 SSTORE DUP1 SWAP2 POP POP PUSH1 0x1 SWAP1 SUB SWAP1 PUSH1 0x0 MSTORE PUSH1 0x20 PUSH1 0x0 KECCAK256 SWAP1 PUSH1 0x2 MUL ADD PUSH1 0x0 SWAP1 SWAP2 SWAP1 SWAP2 SWAP1 SWAP2 POP PUSH1 0x0 DUP3 ADD MLOAD DUP2 PUSH1 0x0 ADD SWAP1 DUP2 PUSH2 0x3EC SWAP2 SWAP1 PUSH2 0xC00 JUMP JUMPDEST POP PUSH1 0x20 DUP3 ADD MLOAD DUP2 PUSH1 0x1 ADD PUSH1 0x0 PUSH2 0x100 EXP DUP2 SLOAD DUP2 PUSH1 0xFF MUL NOT AND SWAP1 DUP4 ISZERO ISZERO MUL OR SWAP1 SSTORE POP POP POP POP POP JUMP JUMPDEST DUP1 PUSH1 0x1 PUSH1 0x0 CALLER PUSH20 0xFFFFFFFFFFFFFFFFFFFFFFFFFFFFFFFFFFFFFFFF AND PUSH20 0xFFFFFFFFFFFFFFFFFFFFFFFFFFFFFFFFFFFFFFFF AND DUP2 MSTORE PUSH1 0x20 ADD SWAP1 DUP2 MSTORE PUSH1 0x20 ADD PUSH1 0x0 KECCAK256 DUP4 DUP2 SLOAD DUP2 LT PUSH2 0x465 JUMPI PUSH2 0x464 PUSH2 0x9C5 JUMP JUMPDEST JUMPDEST SWAP1 PUSH1 0x0 MSTORE PUSH1 0x20 PUSH1 0x0 KECCAK256 SWAP1 PUSH1 0x2 MUL ADD PUSH1 0x0 ADD SWAP1 DUP2 PUSH2 0x482 SWAP2 SWAP1 PUSH2 0xC00 JUMP JUMPDEST POP POP POP JUMP JUMPDEST PUSH1 0x60 PUSH1 0x0 DUP1 SLOAD PUSH2 0x496 SWAP1 PUSH2 0xA23 JUMP JUMPDEST DUP1 PUSH1 0x1F ADD PUSH1 0x20 DUP1 SWAP2 DIV MUL PUSH1 0x20 ADD PUSH1 0x40 MLOAD SWAP1 DUP2 ADD PUSH1 0x40 MSTORE DUP1 SWAP3 SWAP2 SWAP1 DUP2 DUP2 MSTORE PUSH1 0x20 ADD DUP3 DUP1 SLOAD PUSH2 0x4C2 SWAP1 PUSH2 0xA23 JUMP JUMPDEST DUP1 ISZERO PUSH2 0x50F JUMPI DUP1 PUSH1 0x1F LT PUSH2 0x4E4 JUMPI PUSH2 0x100 DUP1 DUP4 SLOAD DIV MUL DUP4 MSTORE SWAP2 PUSH1 0x20 ADD SWAP2 PUSH2 0x50F JUMP JUMPDEST DUP3 ADD SWAP2 SWAP1 PUSH1 0x0 MSTORE PUSH1 0x20 PUSH1 0x0 KECCAK256 SWAP1 JUMPDEST DUP2 SLOAD DUP2 MSTORE SWAP1 PUSH1 0x1 ADD SWAP1 PUSH1 0x20 ADD DUP1 DUP4 GT PUSH2 0x4F2 JUMPI DUP3 SWAP1 SUB PUSH1 0x1F AND DUP3 ADD SWAP2 JUMPDEST POP POP POP POP POP SWAP1 POP SWAP1 JUMP JUMPDEST PUSH1 0x40 MLOAD DUP1 PUSH1 0x40 ADD PUSH1 0x40 MSTORE DUP1 PUSH1 0x60 DUP2 MSTORE PUSH1 0x20 ADD PUSH1 0x0 ISZERO ISZERO DUP2 MSTORE POP SWAP1 JUMP JUMPDEST POP DUP1 SLOAD PUSH2 0x541 SWAP1 PUSH2 0xA23 JUMP JUMPDEST PUSH1 0x0 DUP3 SSTORE DUP1 PUSH1 0x1F LT PUSH2 0x553 JUMPI POP PUSH2 0x572 JUMP JUMPDEST PUSH1 0x1F ADD PUSH1 0x20 SWAP1 DIV SWAP1 PUSH1 0x0 MSTORE PUSH1 0x20 PUSH1 0x0 KECCAK256 SWAP1 DUP2 ADD SWAP1 PUSH2 0x571 SWAP2 SWAP1 PUSH2 0x575 JUMP JUMPDEST JUMPDEST POP JUMP JUMPDEST JUMPDEST DUP1 DUP3 GT ISZERO PUSH2 0x58E JUMPI PUSH1 0x0 DUP2 PUSH1 0x0 SWAP1 SSTORE POP PUSH1 0x1 ADD PUSH2 0x576 JUMP JUMPDEST POP SWAP1 JUMP JUMPDEST PUSH1 0x0 PUSH1 0x40 MLOAD SWAP1 POP SWAP1 JUMP JUMPDEST PUSH1 0x0 DUP1 REVERT JUMPDEST PUSH1 0x0 DUP1 REVERT JUMPDEST PUSH1 0x0 DUP2 SWAP1 POP SWAP2 SWAP1 POP JUMP JUMPDEST PUSH2 0x5B9 DUP2 PUSH2 0x5A6 JUMP JUMPDEST DUP2 EQ PUSH2 0x5C4 JUMPI PUSH1 0x0 DUP1 REVERT JUMPDEST POP JUMP JUMPDEST PUSH1 0x0 DUP2 CALLDATALOAD SWAP1 POP PUSH2 0x5D6 DUP2 PUSH2 0x5B0 JUMP JUMPDEST SWAP3 SWAP2 POP POP JUMP JUMPDEST PUSH1 0x0 PUSH1 0x20 DUP3 DUP5 SUB SLT ISZERO PUSH2 0x5F2 JUMPI PUSH2 0x5F1 PUSH2 0x59C JUMP JUMPDEST JUMPDEST PUSH1 0x0 PUSH2 0x600 DUP5 DUP3 DUP6 ADD PUSH2 0x5C7 JUMP JUMPDEST SWAP2 POP POP SWAP3 SWAP2 POP POP JUMP JUMPDEST PUSH1 0x0 DUP2 MLOAD SWAP1 POP SWAP2 SWAP1 POP JUMP JUMPDEST PUSH1 0x0 DUP3 DUP3 MSTORE PUSH1 0x20 DUP3 ADD SWAP1 POP SWAP3 SWAP2 POP POP JUMP JUMPDEST PUSH1 0x0 JUMPDEST DUP4 DUP2 LT ISZERO PUSH2 0x643 JUMPI DUP1 DUP3 ADD MLOAD DUP2 DUP5 ADD MSTORE PUSH1 0x20 DUP2 ADD SWAP1 POP PUSH2 0x628 JUMP JUMPDEST PUSH1 0x0 DUP5 DUP5 ADD MSTORE POP POP POP POP JUMP JUMPDEST PUSH1 0x0 PUSH1 0x1F NOT PUSH1 0x1F DUP4 ADD AND SWAP1 POP SWAP2 SWAP1 POP JUMP JUMPDEST PUSH1 0x0 PUSH2 0x66B DUP3 PUSH2 0x609 JUMP JUMPDEST PUSH2 0x675 DUP2 DUP6 PUSH2 0x614 JUMP JUMPDEST SWAP4 POP PUSH2 0x685 DUP2 DUP6 PUSH1 0x20 DUP7 ADD PUSH2 0x625 JUMP JUMPDEST PUSH2 0x68E DUP2 PUSH2 0x64F JUMP JUMPDEST DUP5 ADD SWAP2 POP POP SWAP3 SWAP2 POP POP JUMP JUMPDEST PUSH1 0x0 DUP2 ISZERO ISZERO SWAP1 POP SWAP2 SWAP1 POP JUMP JUMPDEST PUSH2 0x6AE DUP2 PUSH2 0x699 JUMP JUMPDEST DUP3 MSTORE POP POP JUMP JUMPDEST PUSH1 0x0 PUSH1 0x40 DUP4 ADD PUSH1 0x0 DUP4 ADD MLOAD DUP5 DUP3 SUB PUSH1 0x0 DUP7 ADD MSTORE PUSH2 0x6D1 DUP3 DUP3 PUSH2 0x660 JUMP JUMPDEST SWAP2 POP POP PUSH1 0x20 DUP4 ADD MLOAD PUSH2 0x6E6 PUSH1 0x20 DUP7 ADD DUP3 PUSH2 0x6A5 JUMP JUMPDEST POP DUP1 SWAP2 POP POP SWAP3 SWAP2 POP POP JUMP JUMPDEST PUSH1 0x0 PUSH1 0x20 DUP3 ADD SWAP1 POP DUP2 DUP2 SUB PUSH1 0x0 DUP4 ADD MSTORE PUSH2 0x70B DUP2 DUP5 PUSH2 0x6B4 JUMP JUMPDEST SWAP1 POP SWAP3 SWAP2 POP POP JUMP JUMPDEST PUSH2 0x71C DUP2 PUSH2 0x699 JUMP JUMPDEST DUP2 EQ PUSH2 0x727 JUMPI PUSH1 0x0 DUP1 REVERT JUMPDEST POP JUMP JUMPDEST PUSH1 0x0 DUP2 CALLDATALOAD SWAP1 POP PUSH2 0x739 DUP2 PUSH2 0x713 JUMP JUMPDEST SWAP3 SWAP2 POP POP JUMP JUMPDEST PUSH1 0x0 DUP1 PUSH1 0x40 DUP4 DUP6 SUB SLT ISZERO PUSH2 0x756 JUMPI PUSH2 0x755 PUSH2 0x59C JUMP JUMPDEST JUMPDEST PUSH1 0x0 PUSH2 0x764 DUP6 DUP3 DUP7 ADD PUSH2 0x5C7 JUMP JUMPDEST SWAP3 POP POP PUSH1 0x20 PUSH2 0x775 DUP6 DUP3 DUP7 ADD PUSH2 0x72A JUMP JUMPDEST SWAP2 POP POP SWAP3 POP SWAP3 SWAP1 POP JUMP JUMPDEST PUSH1 0x0 DUP1 REVERT JUMPDEST PUSH1 0x0 DUP1 REVERT JUMPDEST PUSH32 0x4E487B7100000000000000000000000000000000000000000000000000000000 PUSH1 0x0 MSTORE PUSH1 0x41 PUSH1 0x4 MSTORE PUSH1 0x24 PUSH1 0x0 REVERT JUMPDEST PUSH2 0x7C1 DUP3 PUSH2 0x64F JUMP JUMPDEST DUP2 ADD DUP2 DUP2 LT PUSH8 0xFFFFFFFFFFFFFFFF DUP3 GT OR ISZERO PUSH2 0x7E0 JUMPI PUSH2 0x7DF PUSH2 0x789 JUMP JUMPDEST JUMPDEST DUP1 PUSH1 0x40 MSTORE POP POP POP JUMP JUMPDEST PUSH1 0x0 PUSH2 0x7F3 PUSH2 0x592 JUMP JUMPDEST SWAP1 POP PUSH2 0x7FF DUP3 DUP3 PUSH2 0x7B8 JUMP JUMPDEST SWAP2 SWAP1 POP JUMP JUMPDEST PUSH1 0x0 PUSH8 0xFFFFFFFFFFFFFFFF DUP3 GT ISZERO PUSH2 0x81F JUMPI PUSH2 0x81E PUSH2 0x789 JUMP JUMPDEST JUMPDEST PUSH2 0x828 DUP3 PUSH2 0x64F JUMP JUMPDEST SWAP1 POP PUSH1 0x20 DUP2 ADD SWAP1 POP SWAP2 SWAP1 POP JUMP JUMPDEST DUP3 DUP2 DUP4 CALLDATACOPY PUSH1 0x0 DUP4 DUP4 ADD MSTORE POP POP POP JUMP JUMPDEST PUSH1 0x0 PUSH2 0x857 PUSH2 0x852 DUP5 PUSH2 0x804 JUMP JUMPDEST PUSH2 0x7E9 JUMP JUMPDEST SWAP1 POP DUP3 DUP2 MSTORE PUSH1 0x20 DUP2 ADD DUP5 DUP5 DUP5 ADD GT ISZERO PUSH2 0x873 JUMPI PUSH2 0x872 PUSH2 0x784 JUMP JUMPDEST JUMPDEST PUSH2 0x87E DUP5 DUP3 DUP6 PUSH2 0x835 JUMP JUMPDEST POP SWAP4 SWAP3 POP POP POP JUMP JUMPDEST PUSH1 0x0 DUP3 PUSH1 0x1F DUP4 ADD SLT PUSH2 0x89B JUMPI PUSH2 0x89A PUSH2 0x77F JUMP JUMPDEST JUMPDEST DUP2 CALLDATALOAD PUSH2 0x8AB DUP5 DUP3 PUSH1 0x20 DUP7 ADD PUSH2 0x844 JUMP JUMPDEST SWAP2 POP POP SWAP3 SWAP2 POP POP JUMP JUMPDEST PUSH1 0x0 PUSH1 0x20 DUP3 DUP5 SUB SLT ISZERO PUSH2 0x8CA JUMPI PUSH2 0x8C9 PUSH2 0x59C JUMP JUMPDEST JUMPDEST PUSH1 0x0 DUP3 ADD CALLDATALOAD PUSH8 0xFFFFFFFFFFFFFFFF DUP2 GT ISZERO PUSH2 0x8E8 JUMPI PUSH2 0x8E7 PUSH2 0x5A1 JUMP JUMPDEST JUMPDEST PUSH2 0x8F4 DUP5 DUP3 DUP6 ADD PUSH2 0x886 JUMP JUMPDEST SWAP2 POP POP SWAP3 SWAP2 POP POP JUMP JUMPDEST PUSH1 0x0 DUP1 PUSH1 0x40 DUP4 DUP6 SUB SLT ISZERO PUSH2 0x914 JUMPI PUSH2 0x913 PUSH2 0x59C JUMP JUMPDEST JUMPDEST PUSH1 0x0 PUSH2 0x922 DUP6 DUP3 DUP7 ADD PUSH2 0x5C7 JUMP JUMPDEST SWAP3 POP POP PUSH1 0x20 DUP4 ADD CALLDATALOAD PUSH8 0xFFFFFFFFFFFFFFFF DUP2 GT ISZERO PUSH2 0x943 JUMPI PUSH2 0x942 PUSH2 0x5A1 JUMP JUMPDEST JUMPDEST PUSH2 0x94F DUP6 DUP3 DUP7 ADD PUSH2 0x886 JUMP JUMPDEST SWAP2 POP POP SWAP3 POP SWAP3 SWAP1 POP JUMP JUMPDEST PUSH1 0x0 DUP3 DUP3 MSTORE PUSH1 0x20 DUP3 ADD SWAP1 POP SWAP3 SWAP2 POP POP JUMP JUMPDEST PUSH1 0x0 PUSH2 0x975 DUP3 PUSH2 0x609 JUMP JUMPDEST PUSH2 0x97F DUP2 DUP6 PUSH2 0x959 JUMP JUMPDEST SWAP4 POP PUSH2 0x98F DUP2 DUP6 PUSH1 0x20 DUP7 ADD PUSH2 0x625 JUMP JUMPDEST PUSH2 0x998 DUP2 PUSH2 0x64F JUMP JUMPDEST DUP5 ADD SWAP2 POP POP SWAP3 SWAP2 POP POP JUMP JUMPDEST PUSH1 0x0 PUSH1 0x20 DUP3 ADD SWAP1 POP DUP2 DUP2 SUB PUSH1 0x0 DUP4 ADD MSTORE PUSH2 0x9BD DUP2 DUP5 PUSH2 0x96A JUMP JUMPDEST SWAP1 POP SWAP3 SWAP2 POP POP JUMP JUMPDEST PUSH32 0x4E487B7100000000000000000000000000000000000000000000000000000000 PUSH1 0x0 MSTORE PUSH1 0x32 PUSH1 0x4 MSTORE PUSH1 0x24 PUSH1 0x0 REVERT JUMPDEST PUSH32 0x4E487B7100000000000000000000000000000000000000000000000000000000 PUSH1 0x0 MSTORE PUSH1 0x22 PUSH1 0x4 MSTORE PUSH1 0x24 PUSH1 0x0 REVERT JUMPDEST PUSH1 0x0 PUSH1 0x2 DUP3 DIV SWAP1 POP PUSH1 0x1 DUP3 AND DUP1 PUSH2 0xA3B JUMPI PUSH1 0x7F DUP3 AND SWAP2 POP JUMPDEST PUSH1 0x20 DUP3 LT DUP2 SUB PUSH2 0xA4E JUMPI PUSH2 0xA4D PUSH2 0x9F4 JUMP JUMPDEST JUMPDEST POP SWAP2 SWAP1 POP JUMP JUMPDEST PUSH1 0x0 DUP2 SWAP1 POP DUP2 PUSH1 0x0 MSTORE PUSH1 0x20 PUSH1 0x0 KECCAK256 SWAP1 POP SWAP2 SWAP1 POP JUMP JUMPDEST PUSH1 0x0 PUSH1 0x20 PUSH1 0x1F DUP4 ADD DIV SWAP1 POP SWAP2 SWAP1 POP JUMP JUMPDEST PUSH1 0x0 DUP3 DUP3 SHL SWAP1 POP SWAP3 SWAP2 POP POP JUMP JUMPDEST PUSH1 0x0 PUSH1 0x8 DUP4 MUL PUSH2 0xAB6 PUSH32 0xFFFFFFFFFFFFFFFFFFFFFFFFFFFFFFFFFFFFFFFFFFFFFFFFFFFFFFFFFFFFFFFF DUP3 PUSH2 0xA79 JUMP JUMPDEST PUSH2 0xAC0 DUP7 DUP4 PUSH2 0xA79 JUMP JUMPDEST SWAP6 POP DUP1 NOT DUP5 AND SWAP4 POP DUP1 DUP7 AND DUP5 OR SWAP3 POP POP POP SWAP4 SWAP3 POP POP POP JUMP JUMPDEST PUSH1 0x0 DUP2 SWAP1 POP SWAP2 SWAP1 POP JUMP JUMPDEST PUSH1 0x0 PUSH2 0xAFD PUSH2 0xAF8 PUSH2 0xAF3 DUP5 PUSH2 0x5A6 JUMP JUMPDEST PUSH2 0xAD8 JUMP JUMPDEST PUSH2 0x5A6 JUMP JUMPDEST SWAP1 POP SWAP2 SWAP1 POP JUMP JUMPDEST PUSH1 0x0 DUP2 SWAP1 POP SWAP2 SWAP1 POP JUMP JUMPDEST PUSH2 0xB17 DUP4 PUSH2 0xAE2 JUMP JUMPDEST PUSH2 0xB2B PUSH2 0xB23 DUP3 PUSH2 0xB04 JUMP JUMPDEST DUP5 DUP5 SLOAD PUSH2 0xA86 JUMP JUMPDEST DUP3 SSTORE POP POP POP POP JUMP JUMPDEST PUSH1 0x0 SWAP1 JUMP JUMPDEST PUSH2 0xB40 PUSH2 0xB33 JUMP JUMPDEST PUSH2 0xB4B DUP2 DUP5 DUP5 PUSH2 0xB0E JUMP JUMPDEST POP POP POP JUMP JUMPDEST JUMPDEST DUP2 DUP2 LT ISZERO PUSH2 0xB6F JUMPI PUSH2 0xB64 PUSH1 0x0 DUP3 PUSH2 0xB38 JUMP JUMPDEST PUSH1 0x1 DUP2 ADD SWAP1 POP PUSH2 0xB51 JUMP JUMPDEST POP POP JUMP JUMPDEST PUSH1 0x1F DUP3 GT ISZERO PUSH2 0xBB4 JUMPI PUSH2 0xB85 DUP2 PUSH2 0xA54 JUMP JUMPDEST PUSH2 0xB8E DUP5 PUSH2 0xA69 JUMP JUMPDEST DUP2 ADD PUSH1 0x20 DUP6 LT ISZERO PUSH2 0xB9D JUMPI DUP2 SWAP1 POP JUMPDEST PUSH2 0xBB1 PUSH2 0xBA9 DUP6 PUSH2 0xA69 JUMP JUMPDEST DUP4 ADD DUP3 PUSH2 0xB50 JUMP JUMPDEST POP POP JUMPDEST POP POP POP JUMP JUMPDEST PUSH1 0x0 DUP3 DUP3 SHR SWAP1 POP SWAP3 SWAP2 POP POP JUMP JUMPDEST PUSH1 0x0 PUSH2 0xBD7 PUSH1 0x0 NOT DUP5 PUSH1 0x8 MUL PUSH2 0xBB9 JUMP JUMPDEST NOT DUP1 DUP4 AND SWAP2 POP POP SWAP3 SWAP2 POP POP JUMP JUMPDEST PUSH1 0x0 PUSH2 0xBF0 DUP4 DUP4 PUSH2 0xBC6 JUMP JUMPDEST SWAP2 POP DUP3 PUSH1 0x2 MUL DUP3 OR SWAP1 POP SWAP3 SWAP2 POP POP JUMP JUMPDEST PUSH2 0xC09 DUP3 PUSH2 0x609 JUMP JUMPDEST PUSH8 0xFFFFFFFFFFFFFFFF DUP2 GT ISZERO PUSH2 0xC22 JUMPI PUSH2 0xC21 PUSH2 0x789 JUMP JUMPDEST JUMPDEST PUSH2 0xC2C DUP3 SLOAD PUSH2 0xA23 JUMP JUMPDEST PUSH2 0xC37 DUP3 DUP3 DUP6 PUSH2 0xB73 JUMP JUMPDEST PUSH1 0x0 PUSH1 0x20 SWAP1 POP PUSH1 0x1F DUP4 GT PUSH1 0x1 DUP2 EQ PUSH2 0xC6A JUMPI PUSH1 0x0 DUP5 ISZERO PUSH2 0xC58 JUMPI DUP3 DUP8 ADD MLOAD SWAP1 POP JUMPDEST PUSH2 0xC62 DUP6 DUP3 PUSH2 0xBE4 JUMP JUMPDEST DUP7 SSTORE POP PUSH2 0xCCA JUMP JUMPDEST PUSH1 0x1F NOT DUP5 AND PUSH2 0xC78 DUP7 PUSH2 0xA54 JUMP JUMPDEST PUSH1 0x0 JUMPDEST DUP3 DUP2 LT ISZERO PUSH2 0xCA0 JUMPI DUP5 DUP10 ADD MLOAD DUP3 SSTORE PUSH1 0x1 DUP3 ADD SWAP2 POP PUSH1 0x20 DUP6 ADD SWAP5 POP PUSH1 0x20 DUP2 ADD SWAP1 POP PUSH2 0xC7B JUMP JUMPDEST DUP7 DUP4 LT ISZERO PUSH2 0xCBD JUMPI DUP5 DUP10 ADD MLOAD PUSH2 0xCB9 PUSH1 0x1F DUP10 AND DUP3 PUSH2 0xBC6 JUMP JUMPDEST DUP4 SSTORE POP JUMPDEST PUSH1 0x1 PUSH1 0x2 DUP9 MUL ADD DUP9 SSTORE POP POP POP JUMPDEST POP POP POP POP POP POP JUMP INVALID LOG2 PUSH5 0x6970667358 0x22 SLT KECCAK256 0x2D CREATE2 LOG2 0xDE ISZERO 0xD2 0x4E EXP 0xBC CALLDATALOAD PUSH12 0x7468E81C90E6F6BBD683FD54 0xD6 0x1E 0xCD 0xF8 PUSH5 0x17FFA1B764 PUSH20 0x6F6C634300081000330000000000000000000000 "
				},
				"gasEstimates": {
					"creation": {
						"codeDepositCost": "667200",
						"executionCost": "infinite",
						"totalCost": "infinite"
					},
					"external": {
						"addTask(string)": "infinite",
						"deleteTask(uint256)": "infinite",
						"getDetails()": "infinite",
						"getTask(uint256)": "infinite",
						"updateStatus(uint256,bool)": "27138",
						"updateTask(uint256,string)": "infinite"
					}
				},
				"methodIdentifiers": {
					"addTask(string)": "67238562",
					"deleteTask(uint256)": "560f3192",
					"getDetails()": "fbbf93a0",
					"getTask(uint256)": "1d65e77e",
					"updateStatus(uint256,bool)": "387008c2",
					"updateTask(uint256,string)": "86533f6c"
				}
			},
			"storageLayout": {
				"storage": [
					{
						"astId": 3,
						"contract": "contracts/4_Assignment_TodoApp.sol:todoapp",
						"label": "detail",
						"offset": 0,
						"slot": "0",
						"type": "t_string_storage"
					},
					{
						"astId": 22,
						"contract": "contracts/4_Assignment_TodoApp.sol:todoapp",
						"label": "Users",
						"offset": 0,
						"slot": "1",
						"type": "t_mapping(t_address,t_array(t_struct(Task)16_storage)dyn_storage)"
					}
				],
				"types": {
					"t_address": {
						"encoding": "inplace",
						"label": "address",
						"numberOfBytes": "20"
					},
					"t_array(t_struct(Task)16_storage)dyn_storage": {
						"base": "t_struct(Task)16_storage",
						"encoding": "dynamic_array",
						"label": "struct todoapp.Task[]",
						"numberOfBytes": "32"
					},
					"t_bool": {
						"encoding": "inplace",
						"label": "bool",
						"numberOfBytes": "1"
					},
					"t_mapping(t_address,t_array(t_struct(Task)16_storage)dyn_storage)": {
						"encoding": "mapping",
						"key": "t_address",
						"label": "mapping(address => struct todoapp.Task[])",
						"numberOfBytes": "32",
						"value": "t_array(t_struct(Task)16_storage)dyn_storage"
					},
					"t_string_storage": {
						"encoding": "bytes",
						"label": "string",
						"numberOfBytes": "32"
					},
					"t_struct(Task)16_storage": {
						"encoding": "inplace",
						"label": "struct todoapp.Task",
						"members": [
							{
								"astId": 13,
								"contract": "contracts/4_Assignment_TodoApp.sol:todoapp",
								"label": "task",
								"offset": 0,
								"slot": "0",
								"type": "t_string_storage"
							},
							{
								"astId": 15,
								"contract": "contracts/4_Assignment_TodoApp.sol:todoapp",
								"label": "isDone",
								"offset": 0,
								"slot": "1",
								"type": "t_bool"
							}
						],
						"numberOfBytes": "64"
					}
				}
			},
			"userdoc": {
				"kind": "user",
				"methods": {},
				"version": 1
			}
		}
	}
}